:10000000D0FF00208D410000C9410000CD4100001B
:10001000D1410000D5410000D94100008E75FDDFBF
:10002000000000000000000000000000DD410000B2
:10003000E141000000000000E5410000E511000082
:10004000ED410000ED41000069170000C1170000FC
:100050002917000031170000391700004117000070
:10006000ED410000ED410000ED410000ED410000D8
:10007000ED410000ED410000E1000000F100000052
:100080000101000011010000210100003101000008
:100090004101000051010000ED410000ED41000070
:1000A000ED410000ED410000ED410000ED41000098
:1000B00055080000ED410000ED410000ED41000059
:1000C0004917000051170000591700006117000080
:1000D000ED410000ED410000ED410000ED41000068
:1000E000024B1B680BB1002018477047AC2700205B
:1000F000024B5B680BB1012018477047AC2700200A
:10010000024B9B680BB1022018477047AC270020B8
:10011000024BDB680BB1032018477047AC27002067
:10012000024B1B690BB1042018477047AC27002015
:10013000024B5B690BB1052018477047AC270020C4
:10014000024B9B690BB1062018477047AC27002073
:10015000024BDB690BB1072018477047AC27002022
:10016000224A70B582FB0032C4170546C4EBA214C4
:100170004FF47A7308460E4603FB145402F0C0F89D
:100180000A3001F017FE70B322460546334618497F
:1001900001F048FF284602F0B3F8002214466B1E17
:1001A00003E013F8011F01320C448242F9DB114ACB
:1001B000114982FB0432E317C3EB6213642202FB92
:1001C000134328462A4601F02DFF284602F098F8EE
:1001D0000A4B02462946186801F0AAFC284601F09D
:1001E000F1FD002070BD6FF0010070BDD34D6210B5
:1001F000C40500001F85EB51CC050000A0240020A1
:10020000024B0122186000201A71704794000020F0
:100210002DE9F04F89B000AF01F04EFA0021162011
:1002200001F062FAAA494FF4004000F061FFA94AC8
:10023000937D1279B3FA83F46409002A56D003F04F
:10024000FF03002800F040814BB14FF4004248F218
:10025000040312681B6882F308889847012404216C
:100260004FF080459C4801F0EFF80026FF23C5F8C9
:10027000A0331020C5F8BC6201F084F8974B1860D9
:1002800000F0DCFF01212C2001F02EFA01210820D2
:1002900001F02AFA0121022001F026FA012124208E
:1002A00001F022FA0121232001F01EFA012106208B
:1002B00001F01AFA0121292001F016FA854B022CCF
:1002C00083F8246083F829609E7100F09A80032CE3
:1002D0000ED1BFF34F8F8249824BCA6802F4E062AD
:1002E0001343CB60BFF34F8F00BFFDE70234B6E787
:1002F0007D4C7E4EDFF81C82DFF81C9201229A7042
:1003000021461A72032083F82C2001F045FB206857
:10031000774901F04FFC774B4FF4003230461A60BA
:1003200000F04CFD454606E0002388F800303068B8
:1003300000F096FE30BF4FF480622946206801F03D
:10034000BDFB0028F3DD3A1D4946284601F090FE2A
:100350000128E9D1284601F09BFF82460028E3D01E
:10036000B8604FF0000B644907F1080002F036F85E
:10037000BA68014662B10028F5D002780BF12C0B67
:10038000002AF0D0934411F8012F002AFAD1EAE7AD
:1003900048B14FF0FF3307F10C025849FB6001F000
:1003A00067FE012803D0504601F00CFDBCE7544B1A
:1003B0004FEAEB7283FB0B31C2EB61126420F968E8
:1003C00000FB12B38B42504602D001F0FBFCABE7BE
:1003D00001F0F8FC7B689A4633B1092BA4D1494956
:1003E000306800F0F1FC9FE702230422464907F140
:1003F0000C0001F017FE07F10C015046FFF7B0FEAC
:1004000092E7394C9E7001221E72214683F82C20FF
:10041000032001F0C1FA36492068DFF80091DFF8C7
:10042000008101F1600B01F0C5FB324A4FF400334B
:1004300013604FF00073C5F824324FF40013C5F871
:100440003036C5F8A862C5F89863D5F8003543F092
:100450008243C5F800354FF08053136000F0A6F9D1
:100460003546CA4600F02AFC284920684FF400624D
:1004700001F0FEFA011E254801DD00F0C9FBDDB1E7
:10048000002D2A4609EB060106DD206801F050FB2D
:100490000644AD1B25EAE57598F804300022002BD0
:1004A000E0D088F80420D8F800301949206803B952
:1004B000594601F07FFBD5E74FF40061504600F04C
:1004C0007FFB2E460546DBE7002B18BF0124C6E65E
:1004D000F07F030000C00840001BB7009000002020
:1004E00000ED00E00400FA05A02400209C1000208C
:1004F0004C05000000E100E0D8050000B410000049
:100500001F85EB51A1100020DC050000A01C00207D
:1005100094050000A0100020D4050000A0140020C5
:100520009400002038B500F05DF84FF08043064895
:100530000125002408211022DD640462C3F8201282
:10054000C3F8202238BD00BF0000044007000000AF
:100550009C08002000080000080000009C0000200B
:10056000000800000300000001000000000000007F
:100570000100000000C20100000000000B000000AC
:10058000010000000000000000000000000000006A
:10059000000000000C00000001000000000000004E
:1005A0000000000000000000000000000C0000003F
:1005B000000000000000000000000000000000003B
:1005C000000000002325642C25732C00257325646E
:1005D0000D000000232564002C000000302C256451
:1005E0002C256400444B45495A69DFF838C144481A
:1005F00042F00202F0B55A615A6ADFF82CE1414F2D
:10060000414E424D424C42F4E0225A62D3F88820D7
:1006100042F47002C3F888204FF080434FF4005238
:10062000C3F82022C3F8402100238EF800304FF495
:10063000CC724FF4C0733B600A604FF4C8713160F4
:10064000DFF8E8E02B6040F29D152160CCF8002037
:10065000056005F1804540F29110CEF8003005F6B6
:100660009F65FB62606140F28110CCF8140040F29B
:10067000851CC6F828C0286000F18040E16300F6C0
:100680000B7040F299110CF1804CCEF84C100CF626
:100690000F7CB9673167EA644FF4C575056063671D
:1006A0004FF48073CCF800304FF4C173CEF8703043
:1006B0004FF4CD73036105F18045C7F8A030154BA9
:1006C000C6F8942005F6227540F28716002B2E609E
:1006D0000EF1700EC4F89420016308DD0E490F4A34
:1006E00051F8040B42F8040B043B002BF8DC0C4BD4
:1006F00000221A60F0BD00BF00ED00E008100040CD
:10070000241000400010004010100040181000405D
:100710001C100040000000000C430000900000206E
:100720009000002020100040D1260020281000401A
:1007300010467047CAB10A444FF0604002E00131F0
:100740008A4212D0D0F8803EDB07F8D5D0F8003EC0
:10075000DB07F4D503681BB900BF0368002BFBD08F
:100760000B78037001318A42ECD10020704700BF42
:100770000020704700207047044A05491368002B89
:1007800008BF0B461844106018467047A424002088
:10079000D827002090F8ED30034A003318BF01231A
:1007A00082F8643000207047A8240020204B214AA2
:1007B0001B6821481B68F0B5204C214D6360052162
:1007C00021761B68DFF87CE05E68E26005F11401C9
:1007D000002205F1A8034FF4005783B0E063616580
:1007E0002266C4F810E067612565E365A36504F13E
:1007F0000C0204F150012046B04708B103B0F0BD2F
:10080000224604F1100352F8140B009205F1B901CD
:1008100005F1DC0200F05AF90028EFD194E8090054
:100820001B689B68012103B0BDE8F040184700BF7A
:10083000000200030040084095070000A8240020A3
:100840006408000000000004014B93F86400704746
:10085000A8240020024B93E805001368DB681847C2
:10086000A82400201201000200000040C016DC0590
:1008700003010102000100000403090452036700A0
:10088000690074006800750062002E0063006F004C
:100890006D002F00650069006E0065007200670042
:1008A0006500680074006E006F00630068007200ED
:1008B000650069006E002F00720061002D00680065
:1008C000610072006400770061007200650022031D
:1008D000520061003200200042004C00360035001A
:1008E0003200200042007200690064006700650069
:1008F0000803490041004400080343004900460042
:1009000008034400490046000000000009024B00B3
:100910000201008028080B00020202010009040005
:10092000000102020104052400100104240206054E
:100930002406000105240101000705810310000AB7
:1009400009040100020A0000050705020240000038
:10095000070582024000000008B54FF6FF70814293
:1009600014BF08464FF0FF30FFF74AFC002008BDD7
:1009700038B51B4B5A68824201D01A4838BDD88E10
:10098000194CCA4302F001028842227226D0174C49
:1009900093F83A20187A2468D887012060F304027B
:1009A00060F3461262F07F02202083F83B0083F858
:1009B0003A202268D986126801F00200146D597A33
:1009C0001A4640F001000225A3F84200A3F8405067
:1009D00052F83A0B0A23A047002038BD002038BD4A
:1009E000102500200200040000C00840000200039F
:1009F000022A2ED0032A2AD1CB698B614A698B69DE
:100A00009A42B8BF0A69D31A402B19DD012381F835
:100A100020304023114A70B50C468E691168E26897
:100A20000D68A17A2D6832442D6DA847A36922690B
:100A3000184490FBF2F302FB1300E061002070BD4C
:100A4000002BCCBF0122002281F82020E2D100201F
:100A50007047012381F83430002070470002000302
:100A600008B58B79072B154B0CBF002201221A7198
:100A70000A79012A1AD0022A0CBF012200225A71D7
:100A80004A79013A032A03D8DFE802F01512040478
:100A900000229A710A680A498A4298BF1A61094B72
:100AA0000649186801F086F8002008BD064808BD10
:100AB00002229A71EEE703229A71EBE70000002010
:100AC00007AF2F00A0240020010004002DE9F04F03
:100AD00093B0DDF87090002960D091F805A0BAF1CC
:100AE000020F5BD1304DDFF8D4B0286007460C46CA
:100AF00090460021482268461E4601F06BF9DBF85B
:100B00000020126802945369D9F80020CDF80C80B7
:100B100038465F6833680093244B01920D93244A52
:100B2000244B0E9269462A1D0F93B84738B19DE8B1
:100B30000C003260C9F8003013B0BDE8F08F009BA4
:100B4000EB6003F580614FF480622A61AA626962FA
:100B5000A178DBF80020297281208221A97285F812
:100B60000BA06872126801995068134A446828689B
:100B700003F50063A1F50061009301912B46052167
:100B8000A0470028D3D1DBF8003028681B680A4A48
:100B900059682B464C680421A047C8E74FF0FF3046
:100BA00013B0BDE8F08F00BF1025002071090000D0
:100BB00059090000610A0000F10900000002000369
:100BC00070B504460E46FFF73FFEF0B10F4B1A6BAF
:100BD000DD6A9542BBBF986A521BA81A801AB042C0
:100BE000A8BF3046002810DD211800261A6B5D6A68
:100BF000AA5C04F8012B1A6B9D6A01321A631A6B06
:100C0000AA42A8BF1E638C42F0D170BD10250020FF
:100C100070B504460E46FFF717FE002843D0254D59
:100C20006B69AA6993423FDB29699A1A8A1AB24210
:100C300039DB002E0DDD2046A119EA6810F8014BC2
:100C4000D4542A690133814293FBF2F402FB14333A
:100C5000F3D195F820206B612ABBAA699A42C8BFDC
:100C60002B699A1A402A17DD012385F8203040238A
:100C70001149AA690968EE680868A97A04682868B1
:100C8000246D3244A047AB692A69184490FBF2F303
:100C900002FB1300E86170BD002ACCBF01230023D2
:100CA00085F8203003D170BDD21A013ABFE7134650
:100CB000DEE700BF102500200002000370B51B4CCA
:100CC00094F8343090B05BB3236BE16A9942236BA4
:100CD00028DBA26AC91A531E5B1A3F2B20DD144B76
:100CE000E17A1B6820681B681B6800265B6C84F82F
:100CF00034606A469847002812DD01380DEB000584
:100D00000DF1FF32E36A616A12F8010FC854E36A19
:100D1000A16A01338B42E362A8BFE6629542F1D13A
:100D200010B070BD5B1A013BD7E700BF1025002053
:100D300000020003BFF34F8F0549064BCA6802F457
:100D4000E0621343CB60BFF34F8F00BFFDE700BFEE
:100D500000ED00E00400FA0570B5458A2D0200247C
:100D6000B5F5004F82B0047523DB134B9D4202DDC5
:100D7000204602B070BD064672B622466946284635
:100D800000F07AFD224601A9284600F085FD009971
:100D90002246084600F01CFD10B162B602B070BDDC
:100DA000034606F1180128464FF4807200F046FD14
:100DB000F3E76FF00100DCE7EF7F0300014B036016
:100DC00000207047702500202DE9F04F8FB00E46AF
:100DD000044605AA0846964901F04AF9012803D0BD
:100DE00000200FB0BDE8F08F059A531E082B0AD8DB
:100DF000DFE803F07D170509090909097400237C60
:100E0000012B00F0A7808B4B09AD8B49284601F0E0
:100E100009F929460920FFF7A3F900200FB0BDE822
:100E2000F08F237C012BEED130463A21039201F062
:100E3000BBF9039A80460028E5D008AB009306AAC8
:100E400007AB7E4901F014F9032840F09C80089B11
:100E5000022B00F0AE80002B40F0958009AD079B7F
:100E6000E168069A03EB01130793002A00F0BB80A8
:100E700000220392DFF8E49108F109081646924631
:100E800004F1180B16E04FF48072FF2184F814A0CF
:100E90006382584600F09EFF2A464946404601F0CC
:100EA000E7F80128074672D0069B01369E4280F083
:100EB0009580079B628A33441B0A9342ECD0227DC3
:100EC000002AE0D02046FFF747FF079B33441B0A68
:100ED0000028D8D06FF001020392D4E760684FF485
:100EE000FA7100F001FA09AD059A554B8DE7237CA4
:100EF000022B05D9012384F8183109AD4D4B84E745
:100F000072B6002208A94FF4004009AD00F0B4FC0D
:100F1000294600224B4800F0AFFC099908980022AE
:100F200000F056FC20B902460999089800F068FCC8
:100F300062B6A3681BB1444B4FF0FF325A600023E6
:100F40004FF6FF720121E360237562822174059AD6
:100F50003B4B5AE7638A3D4A1B02A3F50043934289
:100F600001D8237D53B909AD30462A46384901F0EE
:100F70007FF801283BD02F4B059A46E72046FFF724
:100F8000EBFE0028EFD0059A2A4B09AD3DE7079B01
:100F90000999CDF800A0334454FA83F20023117666
:100FA000A0683A46294600F013FB08F102082775AD
:100FB0007AE7237D002B37D109AD2A4625494046E3
:100FC00001F056F8012805BF099BE3606FF00103AB
:100FD00000230393089B002B3FF441AF039B059A2A
:100FE0001BB9174B11E7059AFBE7124B0DE7A368F6
:100FF0000BB1154B9B68099A9A42BCD104F10800C9
:1010000000F0D2FA4FF400400368B3F1806FB2D31E
:10101000114900F091F80023237460684FF4FA71CD
:1010200000F062F9064BA7E72046FFF795FEC3E7FD
:10103000B0100000A8100000E8100000B810000078
:10104000AC100000EF7F030000500940EFFF0200EA
:10105000DC100000C4100000F07F0300D810000076
:1010600038B5048844B1B4F5CF7F01D1002038BD34
:1010700000230380032038BD05460122214607488E
:1010800000F016F905F108016860362000F06AFAF0
:101090004FF4CF7320462B8038BD00BFA010000056
:1010A000350D000054250020310000003000000004
:1010B000252A642C256400003A2532582534582509
:1010C000325800003A252A3258252A3458252A3227
:1010D000582534580000000025325800252A642C79
:1010E000252A642C256C750025642C2573000000CE
:1010F00030B585B004460D46362003A900F032FA1B
:10110000039818B10B4B4FF0FF325A6000232A1B93
:101110002146009300F05CFA039C0CB1054B9C68DF
:1011200003A800F041FA2868001BB0FA80F04009DB
:1011300005B030BD0050094070B5064686B04FF48A
:1011400080700C4600F036FE002843D04FF48072C9
:10115000FF21054600F03EFE03A9362000F002FA0A
:10116000039818B11C4B4FF0FF325A6000230093D4
:10117000A21B314600F02CFA039B04F0FC020BB1D9
:10118000154B9B68AB5003A800F00EFA002204A98F
:10119000204600F071FB002205A9204600F07CFBF0
:1011A00004990022084600F013FB28B1284606B037
:1011B000BDE8704000F006BE03464FF4807224F094
:1011C000FF00294600F03AFB284606B0BDE8704013
:1011D00000F0F8BD06B070BD00500940704700BF78
:1011E000704700BF124A1349136810B50C680133E9
:1011F000136014B914E0646894B1E3685A1E002BBC
:10120000F9D0E260002AF6D1A36960691B689847AB
:10121000237A012B04BF2369E3606468002CECD1BE
:10122000054B1A681AB11A68013A1A6010BD10BD50
:10123000942600208C26002090260020154B164A6C
:101240001B68A2FB03235B09013BB3F1807F10B451
:1012500009D2124A12485360E0240021072380F883
:101260002340916013600D4B0E495A68DB6810BC37
:1012700033F07F4322F07F4214BF1B020A4BB3FBC3
:10128000F2F39B00A1FB0323084ADB080020136054
:10129000704700BF900000201F85EB5110E000E078
:1012A00000ED00E0CDCCCCCC0040420F240000206B
:1012B00070B40C4E054634684068002342610172E8
:1012C0008561C360036143600CB907E01C46636835
:1012D000002BFBD10460606070BC7047046030601C
:1012E00070BC70478C26002050B1064B1B6801FB78
:1012F00003F1890A08BF01210161C1600020704724
:1013000081207047240000204B1C10D059B10C4B99
:101310000C4AA3FB0131C908116001E013686BB1ED
:101320000378002BFAD10123037000207047037863
:10133000002BF8D00378002BF9D1F4E7C1207047D7
:10134000CDCCCCCC90260020037873B94B1C10D0A8
:1013500091B10A4B0A4AA3FB0131C908116001E0AF
:1013600013684BB10378002BFAD0002303700120DF
:1013700070470378002BFCD000207047CDCCCCCC3C
:101380009026002010B52B4A2B4C4FF08041431E75
:10139000172B0DD8DFE803F0390E0E25270C320C81
:1013A000141B0C0C0C0C3F421D1D1D1D1D1D1D1D75
:1013B000002010BD236A03F0030313441879E6E705
:1013C000D1F8903203F007031344187ADFE71B4883
:1013D00010BD9B3051F8203003F007031344187DF3
:1013E000D5E7174810BD4FF080431648D3F80025C5
:1013F000124B12F4804F08BF184610BDD1F884324A
:1014000003F003031344187CC1E7D1F8803203F0E2
:101410000303D05CBBE74FF4004010BD0720FFF78B
:10142000B1FF4FF08043D3F88033DBB20133B0FB20
:10143000F3F010BD4815000000000440006CDC0211
:10144000001BB70000D8B80570B53A4D2B680BB932
:10145000394B2B6083421CD04FF08043002204465E
:10146000354EC3F880224FF480000829C3F8842247
:10147000C3F880232E60C3F8200652D00F290AD06B
:1014800004294FD007220846C3F89022FFF77AFFBD
:101490002C60002070BD0322C3F890220846FFF79D
:1014A00071FF8442F4D0244B9C423ED9234B244A02
:1014B00007219C421160ECD14FF0804340F2026260
:1014C000C3F8882547F6F9724FF4804359084B401A
:1014D0009B0303F48043013A43EA0103F6D14FF042
:1014E000804143F4C023C1F89035E2221548C1F889
:1014F0008C254FF48003C1F880050A46C1F83036C8
:10150000D2F88435DB07FBD5D2F8003423F47043DE
:1015100043F400530221C2F800340020C2F88412C0
:1015200070BD0122C3F89022B8E7054B05221A606E
:10153000002070BD90000020001BB700006CDC0292
:1015400000000240C014040004080605070400005F
:101550000408000F0000000001000A0F04050A0D36
:101560000C000000C1B10E4A137883B9F0B54FF0FA
:1015700080460C4D4FF0010E4FF4001782F800E04A
:1015800084B2C6F8207218462C600A60F0BD0023B1
:101590000B604FF0FF3070476FF00200704700BFE4
:1015A000982600200050094078B10168034661B1D7
:1015B0004FF0804010B44FF40014C0F840420022B5
:1015C00010460A701A6010BC70476FF00200704736
:1015D00088B172B110B5094C0A4411F8010B2072A0
:1015E0008A42FAD11BB1064A92E8030098470020CC
:1015F00010BD002070476FF0020070470050094096
:10160000041600000C0000000000000070B582B05D
:1016100000234FF04022274D8DF803308DF8013024
:101620008DF80200861C1169012305EB86028340B8
:101630000B42536814BF0521032105220446019182
:101640008DF800201BB102AA12E9030098474FF061
:10165000402201231168A340194209D02C44227969
:10166000062A06D8DFE802F0101605071C071C0042
:10167000536202B070BD05EB86056A68002AF8D196
:101680004FF04022D360F4E74FF0402213625362E0
:1016900002B070BD4FF04022D361536202B070BD02
:1016A0004FF0402205EB86050021D360536269604C
:1016B00002B070BD9C26002030B44FF08043094A30
:1016C0004FF480454FF400444FF48020C3F820527B
:1016D00002F13401C3F82042C3F8200230BC11608B
:1016E000704700BF9C26002070B50E4E04460D4684
:1016F00030684FF0FF31FFF707FE90B963099B0098
:1017000003F1804303F50E2304F01F041A683668C2
:101710000121A140A54022EA01042C431C6006B12E
:10172000307070BD9C2600200020FFF76FBF00BF07
:101730000120FFF76BBF00BF0220FFF767BF00BFAC
:101740000320FFF763BF00BF0420FFF75FBF00BFA8
:101750000520FFF75BBF00BF0620FFF757BF00BFA4
:101760000720FFF753BF00BF134B1B6A13F0100392
:101770001CD100B5114A83B0D26A8DF801300193B3
:101780000520012104238DF800008DF803108DF849
:1017900002301AB102AB13E903009047064A136AFC
:1017A00083F01003136203B05DF804FB024A136A6E
:1017B00083F0100313627047002000409C26002035
:1017C000024A136843F00103136070470030004081
:1017D00010B58AB032230190029100931446074B52
:1017E00005A968469847059B04B12370002B14BFD8
:1017F0006FF0010000200AB010BD00BF0502000319
:1018000010B50C4B8AB01B6802919B0A34210190E1
:1018100003930091084B144605A968469847059B19
:1018200004B12370002B14BF6FF0010000200AB038
:1018300010BD00BF900000200502000310B50C4C45
:101840008AB0019020680291800A332103920490AB
:1018500000911C4605A9074B68469847059A04B1B4
:101860002270002A14BF6FF0010000200AB010BDE2
:101870009000002005020003B0F5002F08D239B116
:10188000C00B086012B14FF4004313600020704792
:101890006FF00200704700BFB0F5002F08D239B1D9
:1018A000000A086012B14FF4807313600020704783
:1018B0006FF00200704700BF2DE9F047344E56F834
:1018C0002070D7F8185E84B007232A0704468DF8E5
:1018D00009008DF8083024D46B0719D534232D4A1C
:1018E00003FB04F41319D96A986A884213D0125D75
:1018F000D96A186A56F82220415CC2F8201EDA6ABA
:10190000596A0132DA62DA6A8A4201D30022DA6263
:1019100004B0BDE8F0870423C7F8143E04B0BDE866
:10192000F087342303FB00F3DFF868A00AEB030918
:101930001AF80320D9F8101056F82230D3F8308E58
:1019400091B1342000FB04A0C2698369019242690D
:101950000133934228BF0023019A9A42BCD0826986
:1019600001F802808361B7E7D9F80C305FFA88F29A
:101970000392002BB0D002228DF80B2004AA12E9AA
:1019800003009847D9F810100029A5D0D9E700BF67
:10199000501D0000D42600202DE9F047304E314F75
:1019A00056F8204033184FF034081B7C3F2B054677
:1019B0008A4608FB00783FD903F01F0301222A4919
:1019C00002FA03F34B614FF001092849C4F8F89F6C
:1019D000284600F0E9F94FF0340E0EFB05FE07EB48
:1019E0000E0303225978C4F8002EC4F8082E79BBE0
:1019F00006EB85064FF0FF307269766A12685A600E
:101A0000326882F8009032689A604FF00F0C052619
:101A100008222061C4F828C008462162616026605F
:101A2000CAF8008007F80E5083F8019083F8301050
:101A3000C4F8102EBDE8F0875A09883203F01F035E
:101A400001214FF0804001FA03F340F82230BAE759
:101A50000023CAF800304FF0FF30BDE8F08700BF28
:101A6000501D0000D426002000000440B9180000DA
:101A70000346F8B1002A1DDDF0B48069DC69A0429C
:101A80001AD00A440D46002703E09E69DC69A6428D
:101A90000ED01869005D05F8010BDC695E69013440
:101AA000B442DC6128BFDF619542A5EB0100ECD1B7
:101AB000F0BC7047002070470020F9E70369F0B4DC
:101AC00023B3002A22DD0027C3693D4611E00469E3
:101AD0004669E45C0133B34228BF0023012A1DBFDD
:101AE0004C5502F1FF32013517460A2C12D00D2C4D
:101AF00010D08469A342EAD142690135954205D3E9
:101B00004FF0FF35C3612846F0BC704700252846DA
:101B1000F0BC704700224A55C3613FB14FF0FF351A
:101B200041698A42ECD22846F0BC70476A1CF7E74C
:101B30002DE9F04704461E482578236A50F82570A1
:101B40008A46164663B3002E4FF0000515DD4FF0B0
:101B500001094FF00408A16A626AE06A4B1C9342D3
:101B600028BF002383420ED0226A1AF80500505481
:101B7000013E05F10105A362EDD104232846C7F813
:101B8000103EBDE8F08794F831306421002BF4D08A
:101B900084F83090A068C7F8108EFFF7D5FBDAE71D
:101BA00094F83050002DCED1012384F83030E4E792
:101BB000501D00002DE9F04F0278DFF88C910B7872
:101BC00059F8226083B0002B34D0321D06F108058D
:101BD0008046104602F070420C4602EB4012294645
:101BE00005F0704502F1007205F100751835171DFA
:101BF000DFF858A11832019205EB4115013B0B2B80
:101C000026D8DFE803F048253A256158332C2525EE
:101C10001A062379002B00F09380019B1A460123BA
:101C200013602B68002BFCD001233B6014F80C3FA1
:101C3000002BE3D103B0BDE8F08F23793268002B8D
:101C40000CBF00234FF4007322F40072134333607F
:101C500014F80C3F002BD1D103B0BDE8F08F6368BE
:101C6000C8F81030A368C8F81430F1E76368C8F802
:101C70002030A368C8F82430EAE763792179326814
:101C80009B0143EA810302EA0A02A179134343EA72
:101C900001133360DCE798F800304B4493F83400CC
:101CA000FFF770FB33681B051ED56368B0FBF3F3C9
:101CB000013B3362CCE7A36813B1D8F80C201A605B
:101CC0006368C8F80C30C3E733682279617903EAA6
:101CD0000A0343F4006343EA8203A27943EA01332F
:101CE00043EA82333360B3E7D4F804E00EEB8E01AD
:101CF00049004FF0FF3C4FF0100B0A22B0FBF1F30C
:101D000002FB03F3B0FBF3F3AEEB0303002BB8BF0E
:101D10005B42634538BF934602F1010238BF9C46DF
:101D2000112A7144EAD10BF1FF33B362B36A03F0B5
:101D30000F0303FB0EEEB0FBFEF00138306287E7C5
:101D4000019A3B60136083E7501D000083A6FFFFEC
:101D50000060084000700840008008400090084083
:101D60002B2C2D2EA41D0000A01D00009C1D00008A
:101D7000981D0000941D0000901D00008C1D0000A7
:101D8000881D000011121314A4270020A52700208D
:101D9000A6270020A7270020A8270020A927002089
:101DA000AA270020AB270020014B43F820107047E2
:101DB000AC270020024B0146186800F0A1B800BF14
:101DC00028000020024B0146186800F051B800BFFF
:101DD0002800002070B4860746D0541E002A41D047
:101DE000CAB2034602E014F1FF343BD303F8012BDF
:101DF0009D07F8D1032C2ED9CDB245EA05250F2C2D
:101E000045EA054519D903F110022646103E0F2E6A
:101E100042F8105C42F80C5C42F8085C42F8045C42
:101E200002F11002F2D8A4F1100222F00F0204F025
:101E30000F041032032C13440DD91E462246043AD7
:101E4000032A46F8045BFAD8221F22F00302043268
:101E5000134404F003042CB1C9B21C4403F8011B61
:101E60009C42FBD170BC704714460346C2E700BFDA
:101E700091B151F8043C0439002BB8BFC9181F4B6D
:101E80001A68FAB18A4230B40AD908680C18A2421A
:101E900026D04A60196030BC70478B4203D81A467E
:101EA0005368002BF9D1146815198D420DD006D84E
:101EB00008680C189C4219D04B605160EBE70C236A
:101EC0000360E8E74A601960704709680C4411191B
:101ED00099421460DFD10ACB0C4453601460DAE7F6
:101EE000146852684A6020440860D3E71C685B6845
:101EF0004B60204408605160CDE700BFCC27002034
:101F000070B5CC1C24F0030408340C2C38BF0C240E
:101F1000002C06463BDBA14239D8274D296851B138
:101F20000A68121B04D436E01A68121B1AD5194627
:101F30004B68002BF8D16968002937D0214630461C
:101F400000F03CF8431C22D0C31C23F00305A84238
:101F500005D0291A304600F031F8013017D02C6036
:101F60002B4604E00B2A0DD91A6013441C6003F1C0
:101F70000B0020F007001A1D821A02D0514299501E
:101F800070BD70BD8B420ED05A684A60EFE70C23DB
:101F90003360002070BD0B2A03D84A680B462A60C4
:101FA000E5E70B46E0E70A460B46F8E7304600F067
:101FB00005F86860C2E700BFCC27002038B5074CA1
:101FC0000023054608462360FEF7D6FB431C00D0DD
:101FD00038BD2368002BFBD02B6038BDD4270020F0
:101FE0000CB4F0B59DB022AC029154F8042B0691CC
:101FF00023466FF000454FF402774FF6FF7602A9B3
:102000000194ADF8147004950795ADF8166000F0D2
:10201000DDFB029B00221A701DB0BDE8F04002B04B
:10202000704700BF0EB4F0B59CB021AB0F4953F818
:10203000042B019305466FF00044086802954FF4A5
:1020400002774FF6FF7602A90695ADF81470049456
:102050000794ADF8166000F0B9FB029B00221A70DD
:102060001CB0BDE8F04003B0704700BF280000205E
:102070000EB4F0B59CB021AC4FF4017254F8046B6F
:10208000ADF814200290069000F03AF90C4B019440
:10209000054632460B4F1868039523464FF6FF76E8
:1020A000002402A907950B970F941494ADF81660BD
:1020B00000F00AFD1CB0BDE8F04003B0704700BF5F
:1020C00028000020412100000CB4F0B59DB022ACE6
:1020D00006464FF40173084654F8047B02910691BA
:1020E000ADF8143000F00CF93A4605462346019449
:1020F00030460024084F03954FF6FF7602A9079556
:102100000B970F941494ADF8166000F0DDFC1DB031
:10211000BDE8F04002B070474121000010B50C4608
:10212000B1F90E1001F010FA002803DB636D0344CF
:10213000636510BDA38923F48053A38110BD00BF44
:10214000002070472DE9F0411646B1F90C201F46DA
:10215000D3050C46054607D500220223B1F90E101F
:1021600000F0A4F9B4F90C20B4F90E1022F4805256
:10217000A2813B4632462846BDE8F04100F06AB9EC
:1021800010B50C46B1F90E1000F090F9A389421C6D
:102190000EBF23F4805343F480536065A38110BDC8
:1021A000B1F90E1000F06CB9C9B2002941D0820714
:1021B000F0B467D00378002B68D0994237D0431C25
:1021C00004E013F8010B90B381422FD09A071C460C
:1021D000F7D1256841EA012343EA034383EA050670
:1021E000A6F10130A5F1013220EA060022EA05023B
:1021F000024312F0803F11D1204650F8046F83EA69
:102200000607A7F10135A6F1013225EA070522EA02
:1022100006022A4312F0803FEFD00446207818B916
:1022200005E014F8010F10B18142FAD12046F0BC4C
:102230007047830724D00378002BF9D0431C03E0B8
:1022400002780133002AF3D099071846F8D11968AB
:10225000A1F1013222EA010212F0803F08D153F8C5
:10226000041FA1F1013222EA010212F0803FF6D0F0
:102270001A78184642B110F8013F002BFBD1704785
:102280000346E4E70446A4E7184670471846CEE73D
:10229000024B0146186800F003B800BF2800002078
:1022A00070B5064608460C4600F02AF8451C29463B
:1022B0003046FFF725FE064618B12A46214600F0B3
:1022C0000BF9304670BD00BF0000000000000000A8
:1022D00000000000000000000000000000000000FE
:1022E00000000000000000000000000000000000EE
:1022F00000000000000000000000000000000000DE
:1023000090F800F06DE9024520F007016FF0000C35
:1023100010F0070491F820F040F049804FF00004DD
:102320006FF00700D1E9002391F840F000F10800B8
:1023300082FA4CF2A4FA8CF283FA4CF3A2FA8CF3F0
:102340004BBBD1E9022382FA4CF200F10800A4FA57
:102350008CF283FA4CF3A2FA8CF3E3B9D1E90423AB
:1023600082FA4CF200F10800A4FA8CF283FA4CF3E2
:10237000A2FA8CF37BB9D1E9062301F1200182FA9C
:102380004CF200F10800A4FA8CF283FA4CF3A2FAA2
:102390008CF3002BC6D0002A04BF04301A4612BAB0
:1023A000B2FA82F2FDE8024500EBD2007047D1E9B3
:1023B000002304F00305C4F100004FEAC50514F042
:1023C000040F91F840F00CFA05F562EA05021CBF13
:1023D00063EA050362464FF00004A9E702460023C2
:1023E000006800F001B800BFF0B418B307460D460E
:1023F00017F8016B01E0A64217D015F8014B002C2D
:10240000F9D1E6B117F8015B0C4601E0002BF9D0D9
:1024100014F8013B9D42F9D155B1002307F8013C66
:10242000176006463046F0BC704753B13846DDE7CA
:102430002F46F5E710680028D8D10646F2E7166067
:10244000F0E7176006460370ECE700BF0123FFF7D3
:10245000CBBF00BF70B50D46084C114606461A4664
:10246000284600232360FEF765F9431C00D070BDA9
:102470002368002BFBD0336070BD00BFD427002041
:1024800038B5074C0023054608462360FEF770F96F
:10249000431C00D038BD2368002BFBD02B6038BD17
:1024A000D42700202C0000204300000070B50D460A
:1024B000084C114606461A46284600232360FEF7BC
:1024C00059F9431C00D070BD2368002BFBD033604A
:1024D00070BD00BFD4270020844641EA000313F0FA
:1024E00003036DD1403A41D351F8043B40F8043B1B
:1024F00051F8043B40F8043B51F8043B40F8043BDE
:1025000051F8043B40F8043B51F8043B40F8043BCD
:1025100051F8043B40F8043B51F8043B40F8043BBD
:1025200051F8043B40F8043B51F8043B40F8043BAD
:1025300051F8043B40F8043B51F8043B40F8043B9D
:1025400051F8043B40F8043B51F8043B40F8043B8D
:1025500051F8043B40F8043B51F8043B40F8043B7D
:1025600051F8043B40F8043B403ABDD2303211D31D
:1025700051F8043B40F8043B51F8043B40F8043B5D
:1025800051F8043B40F8043B51F8043B40F8043B4D
:10259000103AEDD20C3205D351F8043B40F8043B1D
:1025A000043AF9D2043208D0D2071CBF11F8013B1B
:1025B00000F8013B01D30B8803806046704700BFE1
:1025C000082A13D38B078DD010F003038AD0C3F1F0
:1025D0000403D21ADB071CBF11F8013B00F8013BD2
:1025E00080D331F8023B20F8023B7BE7043AD9D391
:1025F000013A11F8013B00F8013BF9D20B78037066
:102600004B7843708B788370604670472DE9F047B4
:102610008E689E420C461D46174628D880468889FB
:1026200010F4906F32D04E692368096906EB4606B4
:10263000A3EB010906EBD6766B1C76104B44B34234
:10264000324684BF1E463246430522D511464046D7
:10265000FFF756FC824680B34A462169FFF73CFFEC
:10266000A38923F4906343F08003A38116E00868F4
:102670001E462A46394601F0F3FCA2682368961BE1
:102680002B44A66023600020BDE8F087086835462B
:10269000EFE7404601F048FD824650B1A6EB090342
:1026A0000AEB09006661C4F810A02060A3602E4602
:1026B000DFE721694046FFF7DBFB0C23C8F8003059
:1026C000A38943F04003A3814FF0FF30BDE8F087BA
:1026D0002DE9F04F936883B09046002B70D082466E
:1026E0000C4617688D68086842E0A38913F4906F60
:1026F0002ED06569216905EB4505A0EB010B05EBC3
:10270000D5750BF101006D103044A8422A4684BFF4
:1027100005462A465B0538D511465046FFF7F0FBC3
:1027200000283CD05A4621690190FFF7D5FEA289C6
:10273000019B22F4906242F08002A281A5EB0B0281
:1027400003EB0B00656123612060A2603546B34650
:102750005A46494601F084FCD8F80830A26820683F
:10276000551B58449E1BA5602060C8F808603EB306
:102770007E683B460837002EFAD0AE42D3F8009070
:10278000AB46B2D23546B346E2E7504601F0CCFC48
:1027900003460028D2D121695046FFF769FB0C237C
:1027A000CAF80030A389002243F040034FF0FF3005
:1027B000A381C8F80820C8F8042003B0BDE8F08F52
:1027C0000020C8F8040003B0BDE8F08F2DE9F04FF9
:1027D00014468A899DB0150689460393824603D51F
:1027E0000B69002B00F0EB8030238DF82A30237822
:1027F0007C4E0022202109928DF829100127002B00
:1028000000F08480252B254603D117E0252B00F00E
:10281000878015F8013F002BF8D1B5EB040B75D07C
:1028200022465B4649465046FFF7F0FE01306DD028
:10283000099B2A785B440993002A67D000234FF054
:10284000FF3201350493079306938DF853301A93A2
:10285000059204E0049A07FA03F3134304932978DA
:102860000522304601F0ACFB2C46831B01350028C5
:10287000F0D1049BD90644BF20228DF85320217843
:102880001A0744BF2B228DF853202A296BD0A1F1BF
:102890003002092A0BD8079B14F8011F03EB8303AE
:1028A00002EB4303A1F13002092AF5D907932E293F
:1028B00041D04D4D0322284601F082FB38B1049BE4
:1028C000401B402202FA00F00343013404932178B4
:1028D00046488DF828100622013401F071FB0028CB
:1028E0004BD0434B03B303AB00934A46414B04A97F
:1028F0005046AFF300808046B8F1FF3F06D0099BF9
:10290000434409932378002B7FF47CAFB9F80C3053
:102910005B0654BF09984FF0FF301DB0BDE8F08F43
:10292000B5EB040B8AD07BE7039B073323F0070347
:1029300008330393E3E761782A2904F1010026D0E4
:10294000A1F130020023092A05930446B1D814F8F6
:10295000011F03EB830302EB4303A1F13002092AB9
:10296000F5D90593A5E7039A11680432002903926B
:102970001FDB07916178013499E703AB00934A4666
:102980001C4B04A9504600F0F9FA8046B4E7039BBB
:102990001A680592002A03F104030393B8BF4FF0AD
:1029A000FF3204F10203AEBFA178A17805921C4664
:1029B0007FE7494243F0020307910493DAE740219D
:1029C000FFF79EFAC9F80000C9F8100018B14023BB
:1029D000C9F8143008E70C23CAF800304FF0FF3074
:1029E0009BE700BFF8290000002A0000042A00002D
:1029F000000000000D260000232D302B20000000D9
:102A0000686C4C00656667454647000038B54B1C4E
:102A10001AD09389546B23F02003CDB29381B4B1C3
:102A200014465268A36B9A4209DA23685A1E226040
:102A300003F8015C636801336360284638BD2146B2
:102A400000F00CFF0028F0D04FF0FF35F5E71169DA
:102A5000136829B1994203D213F8011C8D420FD09B
:102A6000D36313465468146402F144000321506395
:102A7000916303F8465F012113605160284638BD19
:102A80005168013B013113605160D6E710B50C4627
:102A9000496B69B104F14403994201D0FFF7E8F9A9
:102AA000236C63600020606313B1E36B236010BD8F
:102AB000A3892269226043F020030022A38162607F
:102AC0004FF0FF3010BD00BF2DE9F04FADF5257D73
:102AD000DFF878C2DFF878E201930DF10C080023EB
:102AE000984DDFF86492DFF86CA2CDF888C20746F3
:102AF0000C461646CDF88CE246934793CDF82081DC
:102B00003378002B2DD02A681A44527812F008022C
:102B10001AD062680EE023682A6819780A440133E3
:102B2000527812070ED54799626823600131013A45
:102B300047916260002AEEDCA39B21463846984705
:102B40000028E8D00136DBE7252B06F1010B0DD07C
:102B50006268002A40F3BD80226811788B4200F041
:102B6000AE8046980DF5257DBDE8F08F45924392E5
:102B700071782A2900F0B780A1F13002092A0CD817
:102B8000002202EB820201EB4202303A45921BF82E
:102B9000011FA1F130000928F3D903226A480093EC
:102BA00001F00EFA009B40B14399A0EB090001220D
:102BB00082400A430BF1010B43929BF800200BF17A
:102BC0000106782A00F22581DFE812F0DF002301F8
:102BD00023012301230123012301230123012301D5
:102BE00023012301230123012301230123012301C5
:102BF00023012301230123012301230123012301B5
:102C000023012301230123012301230123012301A4
:102C1000230123012301E2002301230123012301D6
:102C20002301230123012301230123012301230184
:102C30002301230123012301230123012301230174
:102C40002301230123012301230123012301230164
:102C5000230123012301E400E400E4002301230114
:102C60002301230123012301230123012301230144
:102C7000230123012301230123012301E700230171
:102C80002301F20023012301230123012301230156
:102C90002301FE000501E400E400E4002301080133
:102CA00023012301230123010C011B011F01230127
:102CB000230193002301050123012301E70061683B
:102CC000479B01320139013322605E4661604793C0
:102CD00016E7A39A0093214638469047009B0028A8
:102CE0003FF43AAF25E010224392B17806F1020B8F
:102CF00042E7022349936368002B40F39D80439B86
:102D00005A062FD5499B022B40F38880042B40F3B1
:102D10008C80BAF1000F3FF4F3AE01AB224643A919
:102D20003846AFF3008001283FF41BAF02287FF440
:102D3000E7AE469848B3A38913F0400F18BF4FF091
:102D4000FF300FE78C000020002A00000D2A000051
:102D50008D2A000000000000A39B214638469847BA
:102D60000028E6D12868226800E022601378034436
:102D700001325B781B07C5D563684799013B013178
:102D8000002B47916360F0DCE6E74FF0FF30E9E6A7
:102D9000B346DDE605234993ADE7439B43F4007357
:102DA0001021439344916E2ACCBF04230323A1E74F
:102DB0003146404600F0DEFB439B012243F04003D6
:102DC00006464393499296E7439B002243F0400313
:102DD000439349928FE70A234493E4E70023449303
:102DE000032387E7439BD8063FF58AAED907019BAB
:102DF000479A03F1040101911B684CBF1A801A60C5
:102E00007EE608234493042374E7439B43F02003A6
:102E1000C4E703220A23499244936CE701AB22469C
:102E200043A9384600F00EFA7DE701AB224643A9DC
:102E3000384600F069FA76E7A39B21463846984762
:102E400000283FF45CAF74E72DE9F0470C4691464B
:102E50000A698968DDF820808A42B8BF0A46C9F845
:102E6000002094F8431006461F4611B10132C9F8FC
:102E70000020236899065DD5D9F800200232C9F8F0
:102E80000020236813F0060F19461DD1E1688A1A45
:102E9000002AD8BF194617DD04F1190A002505E0FC
:102EA000E368D9F800209B1AAB420CDD012352469F
:102EB00039463046C047013005F10105F0D14FF0E9
:102EC000FF30BDE8F087216894F84330003318BF25
:102ED00001238A060AD5E1185A1C302081F84300E4
:102EE000224494F8451082F84310023304F143025F
:102EF00039463046C0470130E1D0236803F006036D
:102F0000042B29D0A36822699342C8BF4FF000095F
:102F100030DD9B1A99441A34002501E04D4529D033
:102F20000123224639463046C047013005F10105EC
:102F3000F4D1C4E713F0060F08D1E168D9F80020F6
:102F40008A1A002AD8BF1946A6DCBDE794F8433098
:102F5000003318BF0123C9E7D9F80010E068A3685F
:102F60002269A0EB0109934229EAE979D1DCB9F1A0
:102F7000000FD0D10020BDE8F08700BF2DE9F0435D
:102F80000C46097E85B06E29064617460C98984671
:102F900004F1430C55D00FD8632900F01B8100F2D7
:102FA000D68000295CD0582940F0E88084F845108C
:102FB0002268DFF860E213E0732900F0FD8000F280
:102FC00089806F2900F0E480702940F0D780226862
:102FD00042F0200222607823DFF83CE284F845309A
:102FE0000368150603F1040100F1FF8055064BBF8D
:102FF0001B881B6801600160D00744BF42F02002BB
:103000002260002B40F09580226822F0200222608E
:103010001021002284F843206068A0600028C0F2DC
:103020008D80226822F004022260002B67D10028E4
:1030300040F08680654608296FD0ACEB050323611C
:1030400011E023681A0600F1D38013F0400F0368E3
:10305000626903F1040101601B6814BF1A801A60E1
:10306000002365462361CDF800803B4603AA214634
:103070003046FFF7E9FE013021D02A462369394660
:103080003046C04701301AD02368E06813F0020FC1
:10309000039B19D0C21A002A16DD04F11909002574
:1030A00004E0E068039BC21AAA420DDD01234A46F0
:1030B00039463046C047013005F10105F1D14FF0E6
:1030C000FF3005B0BDE8F0839842B8BF184605B0A0
:1030D000BDE8F08375295BD078294FD122687AE763
:1030E0006168A1602D200029C3F1000384F843002A
:1030F00021DB22F00402DFF81CE122600A21654690
:10310000B3FBF1F201FB123013461EF8002005F864
:10311000012D002BF4D108298FD12368D9078CD534
:10312000626823699A4288DC302305F8013C013D3E
:1031300083E710216DE7DFF8DCE00A21002BDED108
:103140009EF8003084F8423004F1420573E76429A8
:1031500001D0692912D122680368150603F1040120
:1031600052D455064BBFB3F900301B6801600160B3
:10317000002BB5DBDFF89CE00A214DE7012384F842
:103180004210236104F14205002384F843306AE7CA
:1031900023681A0633D413F0400F036803F10402C6
:1031A00015BF1B881B68026002606F2914BF0A21CB
:1031B0000821DFF860E02CE703686268191D0160F0
:1031C0001D680021284600F0FBFE00B3401B606034
:1031D0002061D9E703681A68191D0123016004F111
:1031E000420584F842202361CEE701601B6803E7B3
:1031F00003686269191D01601B681A6030E7036883
:103200001A1D02601B68D0E701601B68B0E76068A8
:10321000DEE700BF1C3200003032000030313233B4
:1032200034353637383941424344454600000000C2
:10323000303132333435363738396162636465662C
:10324000000000002DE9F8430D46896880461446C9
:10325000A86929B900280CBF01224FF0FF32AA60EB
:103260002A68D60649D5DFF89C90002610B30128BD
:1032700022D0022827D12368D9F8002019780A44DF
:10328000527812071FD42A68D10606F1010603D42A
:103290001B783B7023680137A968606801330138E7
:1032A000013923606060A96069B100281BDDA8694D
:1032B0000028DCD12368E6E723686A691978525C44
:1032C000002AE0D1BEB12B6813F0100305D1EA68E3
:1032D000A9690132EA6001B13B702B691E442E617D
:1032E0000020BDE8F883D5F8803121464046984754
:1032F0000028DCD0E7E7BDE8F8831A68111D1960E3
:103300001768B0E78C0000202DE9F04F0C4687B01D
:103310007E4FDFF804827E4E019381461546A369F5
:1033200097E80700A768032B08BFB04607F1FF3EE8
:10333000CDF80080BEF5AE7F0DF10C0888E80700DF
:1033400040F2908040F25D136FF4AE763744A36094
:10335000236804F11C0B43F4506323605E464FF076
:10336000000A2B6858F82A001978022200F028FE7B
:10337000C0B1BAF1010F00F0AE80BAF1020F00F057
:10338000B180A3685A1EA26063B12B685A1C2A60E0
:103390001B7833706B68013B002B06F101066B60F4
:1033A00040F381800AF1010ABAF1030FD9D16168B3
:1033B000002959D0C1F11001564B6069194400F041
:1033C000D9F8A368002B76D0296860690A78805CF8
:1033D00000287ED04FF0000816E022F41062226030
:1033E0000B78337001366B68013B002B6B601DDD81
:1033F0002B6801332B60A368013BA360EBB1296804
:1034000060690A78805CC0B1302A2268E5D1100575
:10341000E3D508F10108002FE5D00133A3606B6804
:10342000013B002B07F1FF376B60E1DCD4F8803102
:103430002946484698470028DDD02268D10504D5A2
:103440005E453BD85E4542D0226812F010020FD094
:103450002369A6EB0B06B04443442361002007B068
:10346000BDE8F08F002773E70A2363600621A3E716
:1034700032706368009D59464846A8472368019901
:103480009A0607D4DB0705D50B681A1D0A601B686E
:10349000188004E00B681A1D0A601B681860E36856
:1034A0000133E360D4E7D4F8803129464846984791
:1034B00000283FF477AF4FF00008BEE716F8011C74
:1034C000D4F87C312A4648469847013EBAE70120A5
:1034D000C5E78046B1E763688BB1236823F4A06336
:1034E00023604EE7236803F4C062B2F5007F7FF4E7
:1034F0005EAF43F4807323601023636041E7236869
:103500000822626043F40073E8E700BF1C35000046
:10351000E935000028350000113700003C35000077
:103520004035000044350000412D46612D66383994
:1035300030313233343536375D0000002B2D00003A
:10354000303000007858000070B50D46084C114628
:1035500006461A46284600232360FDF7E9F8431C77
:1035600000D070BD2368002BFBD0336070BD00BF5E
:10357000D427002070B40C785E2C2FD000224D1C74
:103580001646431E00F1FF0103F8012F8B42FBD1C9
:1035900074B186F0010202556E1C16F8013C2D2B09
:1035A00031460DD05D2B04D033B11C463546F2E7D1
:1035B000691E084670BC70472946084670BC7047B3
:1035C00069785D29F1D08C42EFDC023503190134B2
:1035D000A14203F8012FFADC0236DEE701224C7823
:1035E00016468D1CCDE700BF2DE9F04F414C83B04E
:1035F000D4F800C00190084600E02846054615F8BA
:10360000014B0CEB0406777817F00807F5D12D2C49
:103610004BD02B2C04BF2C78851C1BB1102B53D006
:10362000994603E0302C5CD00A239946002F0CBF4A
:103630006FF0004A4FF0004A4FF0000EBAFBF9F865
:10364000704609FB18AB0EE0303CA3421BDDBEF117
:10365000FF3F06D0404525D822D009FB00404FF05F
:10366000010E15F8014B0CEB0406767816F0040FEA
:10367000EAD116F0030606D0012E14BF57263726CE
:10368000A41BA342E3DCBEF1FF3F12D007B14042CE
:103690001AB1BEF1000F15D1116003B0BDE8F08F73
:1036A0005C45DADD4FF0FF3EDBE72C780127851C17
:1036B000B3E7019922230B605046002AEDD0691E22
:1036C0005046E9E78246FAE7302CA9D1287800F085
:1036D000DF005828A4D14FF010096C784B46023512
:1036E000A4E72B7803F0DF03582BF4D00823994686
:1036F0009CE700BF8C00002010B4044C13460A461F
:103700000146206810BCFFF76FBF00BF28000020F3
:103710002DE9F04F494C8246D4F800C0084600E03D
:103720002046044614F8015B0CEB0506777817F089
:103730000807F5D12D2D58D02B2D04BF2578841CDA
:103740005BB1102B55D04FF0FF38B8FBF3F803FBFB
:1037500008FB6FEA0B0B994607E0302D5AD00A237D
:10376000DFF8DC8099464FF0050B4FF0000E7046F5
:103770000EE0303DAB421BDDBEF1000F26DB4045C5
:1037800024D821D009FB00504FF0010E14F8015B42
:103790000CEB0506767816F0040FEAD116F0030656
:1037A00006D0012E14BF57263726AD1BAB42E3DCF3
:1037B000BEF1000F0FDB07B1404252B1BEF1000F66
:1037C0000FD11160BDE8F08F5D45DBDD4FF0FF3EAE
:1037D000DCE7BDE8F08F2223CAF800304FF0FF305D
:1037E00052B3611E1160BDE8F08F25780127841C5B
:1037F000A6E7302D1AD1207800F0DF00582815D127
:103800004FF0100965784B464FF00F0B02346FF004
:103810007048AAE7237803F0DF03582BF0D0082381
:1038200099464FF0070B6FF060489EE74FF00F0B83
:103830006FF07048994698E7BDE8F08F8C00002043
:103840009999991910B4044C13460A460146206808
:1038500010BCFFF75DBF00BF2800002001F144034A
:103860002DE9F0410C46496B994214D0A66B7700C4
:103870003A4600F059FC054640B300EB06083246D4
:1038800040462946FEF728FEC4F800806563A7631A
:103890000020BDE8F0814FF48061FEF731FBA8B154
:1038A00094F8463060634FF48062A26380F8FF337F
:1038B00094F8453080F8FE3394F8443080F8FD33B6
:1038C00000F2FD3020600020BDE8F0814FF0FF30B5
:1038D000BDE8F08170B54C1C36D00E461446054646
:1038E00010B18369002B32D0334B9C4234D0334B20
:1038F0009C4259D0324B9C4208BFEC68B4F90C3062
:1039000023F020039AB25007A38106D4D1061BD519
:1039100012073CD443F00403A381636BF6B2EBB10E
:103920006268A36B9A4209DA23685A1E226003F880
:10393000016C636801336360304670BD28462146E0
:10394000FFF78CFF0028EFD04FF0FF36F4E700F0D0
:1039500093FA194B9C42CAD16C68CFE7226923685D
:103960002AB19A4203D213F8012C96421ED0E36387
:1039700023466068206404F144010322A26361636A
:1039800003F8466F012223606260304670BD214615
:10399000284600F035F90028D6D1B4F90C30A060E3
:1039A000A06123F00803B5E7AC68A7E76268013BB4
:1039B000013223606260BFE7F83E0000D83E00009D
:1039C000B83E0000024B0A4601461868FFF782BF66
:1039D000280000200020202020202020202028282F
:1039E00028282820202020202020202020202020BF
:1039F00020202020208810101010101010101010FF
:103A0000101010101004040404040404040404102E
:103A100010101010101041414141414101010101BC
:103A20000101010101010101010101010101010186
:103A30001010101010104242424242420202020292
:103A40000202020202020202020202020202020256
:103A50001010101020000000000000000000000006
:103A60000000000000000000000000000000000056
:103A70000000000000000000000000000000000046
:103A80000000000000000000000000000000000036
:103A90000000000000000000000000000000000026
:103AA0000000000000000000000000000000000016
:103AB0000000000000000000000000000000000006
:103AC00000000000000000000000000000000000F6
:103AD00000000000000000008B891A072DE9F0416A
:103AE0000D46804633D44A68002A67DDEC6A002C14
:103AF00045D00022D8F80060C8F8002013F48052A6
:103B000060D06A6D5F0705D569686B6B521A0BB19F
:103B10002B6CD21A0023296A4046A047441C39D096
:103B2000AB892A692A60DB044FF000026A6043D443
:103B3000696BC8F8006011B305F14403994202D0E3
:103B40004046FEF795F900206863BDE8F0810E69F4
:103B5000AEB10C680E6098070CBF4B690023A41B24
:103B60008B600AE023463246AF6A296A4046B8476E
:103B70000028A4EB0004064404DD002CF2DC002045
:103B8000BDE8F081AB8943F04003AB814FF0FF30DB
:103B9000BDE8F081D8F800201D2AF3D8174BD34098
:103BA000DB4313F00103EDD1A9892C696B60C904D3
:103BB0002C60BDD5002ABBD16865B9E70A6C002A24
:103BC00094DCDCE70123296A4046A047431C0246F7
:103BD00002D0AB89EC6A95E7D8F80030002BF8D01A
:103BE0001D2B01D0162B02D1C8F80060C7E7AB89A6
:103BF00043F04003AB81BDE8F08100BF01004020ED
:103C00000B6933B310B5044682B008B18369ABB118
:103C1000114B994219D0114B994218D0104B99422F
:103C200008BFE168B1F90C3013B9002002B010BD33
:103C3000204602B0BDE81040FFF74EBF019100F0F2
:103C40001BF90199044B9942E5D16168EAE7A16843
:103C5000E8E70020704700BFF83E0000D83E0000B3
:103C6000B83E000020B1054B01461868FFF7C8BFF9
:103C7000034B0449186800F075B900BF2800002004
:103C8000A4240000013C000000207047014900F01E
:103C900069B900BF013C00000020704770B54A1EA2
:103CA000682505FB02F50E4605F17401FEF728F9BB
:103CB000044640B100210C30666005F168022160C5
:103CC000A060FEF787F8204670BD00BF204B70B59E
:103CD0001D68AB6906465BB348356B68AC68013B51
:103CE00005D521E0013B5A1C04F168041CD0B4F94D
:103CF0000C20002AF6D100254FF6FF720123E28145
:103D0000A38165662560A560656025616561A56123
:103D10002946082204F15C00FEF75CF86563A563A0
:103D2000A564E564204670BD286828B10546D4E73F
:103D3000284600F00FF8CFE704213046FFF7AEFF2A
:103D400028600028F2D10C2304463360EAE700BF64
:103D5000A42400003D4B3E491A682DE9F04F9042E3
:103D60004FF000038364C364036508BF012383B07D
:103D700008BF836181620746FFF7A8FF7860384675
:103D8000FFF7A4FFB8603846FFF7A0FF7D68F86032
:103D900000240423AB812C606C60AC606C66EC8109
:103DA0002C616C61AC61214605F15C000822FEF7D4
:103DB00011F8BE68DFF89CB0DFF89CA0DFF89C909B
:103DC000DFF89C80C5F824B001230922C5F828A09B
:103DD000C5F82C90C5F830802D622146F381B28160
:103DE00034607460B460746634617461B46106F107
:103DF0005C0008220193FDF7EDFFFD68366212209A
:103E00000222C6F824B0C6F828A0C6F82C90C6F83E
:103E100030802146A881EA812C606C60AC606C66C1
:103E20002C616C61AC6105F15C000822FDF7D2FFEA
:103E3000019B2D62C5F824B0C5F828A0C5F82C90C8
:103E4000C5F83080BB6103B0BDE8F08FA42400004A
:103E50008D3C00001D210000452100008121000053
:103E6000A1210000024B0349186800F07BB800BF95
:103E7000A4240000013C0000836903B96AE770478D
:103E8000704700BF704700BF704700BF704700BF5A
:103E9000024B0349186800F03FB800BF280000201B
:103EA000993C0000024B0349186800F035B800BF88
:103EB00028000020893C00000000000000000000F5
:103EC00000000000000000000000000000000000F2
:103ED00000000000000000000000000000000000E2
:103EE00000000000000000000000000000000000D2
:103EF00000000000000000000000000000000000C2
:103F000000000000000000000000000000000000B1
:103F100000000000000000002DE9F04110F148070A
:103F20001BD0884600267D68BC68013D0FD4A3895C
:103F3000012B05F1FF3506D9B4F90E3001332046C7
:103F400001D0C04706436B1C04F16804EFD13F6801
:103F5000002FE8D13046BDE8F0813E463046BDE84E
:103F6000F08100BF2DE9F84310F148071FD08846C3
:103F700006464FF000097D68BC68013D11D4A38955
:103F8000012B05F1FF3508D9B4F90E300133214674
:103F9000304602D0C04749EA00096B1C04F16804AE
:103FA000EDD13F68002FE6D14846BDE8F883B94619
:103FB0004846BDE8F88300BF000000000000000094
:103FC00001F0FF01102A2BDB10F0070F08D010F8CA
:103FD000013B013A8B422DD010F0070F42B3F6D1CE
:103FE000F0B441EA012141EA014122F007047FF0E7
:103FF00000070023F0E80256083C85EA010586EA3E
:10400000010685FA47F5A3FA87F586FA47F6A5FA79
:1040100087F68EB9EED1F0BC01F0FF0102F0070285
:1040200032B110F8013B013A83EA010313B1F8D130
:104030000020704701387047002D06BF3546033811
:10404000073815F0010F07D1013015F4807F02BF4A
:10405000013015F4C03F0130F0BC0138704700BF9B
:104060008842F0B50DD98B1898420AD28418002ADC
:1040700051D0224613F8014D02F8014D9942F9D171
:10408000F0BD0F2A48D941EA00039B0746D100F151
:10409000100401F11003154653F8106C44F8106C2D
:1040A00053F80C6C44F80C6C53F8086C44F8086C2A
:1040B000103D53F8046C44F8046C0F2D03F1100309
:1040C00004F11004E8D8A2F1100323F00F0302F06A
:1040D0000F0E1033BEF1030F1944034421D91E1FE4
:1040E0000D467446043C55F8047B46F8047F032CC7
:1040F000F8D8AEF1040424F003040434214423442A
:1041000002F0030262B1013B0A4411F8014B03F8CB
:10411000014F8A42F9D1F0BD0346F3E70346F2E7C7
:10412000F0BD7246EEE700BFF8B51446F9B1C2B172
:1041300006460D4600F020F8844201D82846F8BD16
:1041400021463046FDF7DCFE074670B1224629467F
:10415000FEF7C2F9294630463D46FDF789FE28465E
:10416000F8BDFDF785FE2546E8E70546E6E711467A
:10417000BDE8F840FDF7C4BE51F8040C0028A0F1DA
:0C4180000400BCBF0B58C018704700BF03
:10418C00344B1B68012234480068344908403449D8
:10419C00884202D013400FD101E013400CD03148BB
:1041AC000068004003D030490968094001D130BF94
:1041BC00FDE781F3088800472C4B1847FEE700BF4A
:1041CC00FEE700BFFEE700BFFEE700BFFEE700BF53
:1041DC00FEE700BFFEE700BFFEE700BFFEE700BF43
:1041EC00FEE700BF38B5184B184A9A60FCF794F9F3
:1041FC00174900250B46194653F8042BF2B1012A36
:10420C0011D0022AF7D1CA6848688C681031002A8C
:10421C00F0D00346E41A10441A78D2B2E2540133B7
:10422C009842F9D1E6E78A684B680C31002AE1D054
:10423C001A4403F8015B9A42FBD1DBE7AFF3008031
:10424C00FBF7E0FFFEE700BF00ED00E00000000020
:10425C00106300000008004000ED00E0F0FF0FFFCD
:10426C0000C60C410408004008080040F141000061
:10427C00030000000100000000000000010000002D
:10428C0000C201000000000000000000000000005F
:10429C0000000000000400002C00002000000000C2
:1042AC00F83E0000D83E0000B83E000000000000C0
:1042BC00000000000000000000000000A824000026
:1042CC0000000000000000000000000000000000E2
:1042DC0000000000000000000000000000000000D2
:1042EC0000000000000000000000000000000000C2
:1042FC00000000000000000000000000D4390000A5
:04430C0000000000AD
:10431000000000000000000000000000000000009D
:10432000000000000000000000000000000000008D
:10433000000000000000000000000000000000007D
:10434000000000000000000000000000000000006D
:10631000020000007C42000000000020900000000D
:1063200002000000104300000000012000000000F7
:1063300002000000104300000000022000000000E6
:10634000010000009400002044270000010000002C
:1063500000000120000000000100000000000220F9
:08636000000000000000000035
:040000030000418D2B
:00000001FF
