:10800000D0FF0020D9060300DD060300B182000086
:10801000E1060300CD820000E506030036DFF1DF54
:10802000000000000000000000000000E706030060
:10803000E906030000000000EB060300A5AC010008
:10804000EF060300EF060300A1B60100FDB6010034
:1080500051B601005BB6010065B601006FB60100C4
:10806000EF060300E1B80100A5BB0100AFBB0100B2
:10807000EF060300C3BB0100B9B20100CDB201009D
:10808000E1B20100F5B2010009B301001DB3010026
:1080900031B3010045B30100EF060300EF06030012
:1080A000EF06030071C90000EF060300EF060300AE
:1080B00049C20000EF060300EF0603006D940000C4
:1080C00079B6010083B601008DB6010097B60100B4
:1080D000B9BB0100CDBB010065CA0000EF0603007B
:1080E00080B58CB0102012F035FF3D4B186012F0B7
:1080F00003FE00F011FB4FF080624FF08043C3F8A5
:108100002022384813F080FB00F094F9364B1868B1
:10811000364B00932C230222082104F0B9FA0028E0
:1081200049D0334B01229A71324909785A54324866
:1081300001F0FAFB314802F0FFFD314808F0D4FCB1
:10814000304803F001F903F0F1FF4FF08043D3F81A
:1081500000182D4A0A43C3F800282C4A1168C3F8B6
:1081600008185268C3F80428D3F800282849114099
:10817000284A0A43C3F80028DFF89C801E4F1F4E90
:1081800002A81CF0C3FB454602AC0FCC0FC50FCCB8
:108190000FC594E8030085E80300386801F0CCFBC4
:1081A000306802F0D9FE174B186803F06FFA04F03C
:1081B00029F830BFE4E70D4B186804F077FA40B9AE
:1081C0000A4B186804F092FA18B9084B186804F0C2
:1081D000D5FA0221054B186804F022FAA1E700BF86
:1081E000640A0020740A002018190020E00A002008
:1081F00000C00840141900206C0A0020700A0020FA
:10820000680A0020DC0A00202800C4C00000012009
:10821000D7FF3B3F0800C4C0E40A002008B500F0C7
:10822000CDF904211F4812F011FF4FF080430122C5
:10823000DA6400221C490A620821C3F820121021C6
:10824000C3F820124FF00071C3F824124FF400114C
:10825000C3F83016C3F8BC22C3F8CC220320C3F8FD
:10826000EC02C3F8A823C3F8A822C3F89823D3F8D4
:10827000002542F08242C3F800250C4B40221A60D0
:108280004FF000421A604FF400321A601960C022A9
:1082900083F81C234FF080521A604FF400721A606A
:1082A00008BD00BF006CDC020000044000E100E0FB
:1082B000EFF308818A691388C3F30723BE2B02D02A
:1082C000FEE77047704702328A617047FEE77047E9
:1082D000704700004FF080434FF40052C3F8202253
:1082E000C3F8402100224A4B1A704FF4B062494B48
:1082F0001A604FF4CC7208331A604FF4C071103317
:1083000019604FF4C873444803600430016040F2C0
:108310009D1104300160043002600430026040F2BC
:10832000911002F1804202F69862106040F28112D0
:1083300000F1804000F6A36002600430016001F1AA
:10834000804101F69F610A6002F1804202F6CB6231
:1083500013600C321360E02203F1804303F6CC6318
:108360001A60A0232D4A1360043213600432136094
:1083700040F299130C321360043213600832136018
:108380004FF4C47203F1804303F6EF631A604FF4B5
:10839000C17204331A60224BDB7C73BB4FF48072D2
:1083A000204B1A604FF480721F4B1A604FF4C17259
:1083B00004331A604FF4CD7302F1804202F61A7250
:1083C0001360043213604FF4C0730432136040F240
:1083D00087110832116004321360114BDB7C8BB9BA
:1083E0004FF4C872114B1A604FF4CE72104B1A60E2
:1083F000074B93F9003053B1FEE74FF4C072094BBD
:108400001A60CFE74FF4C072084B1A60ECE7704770
:10841000D1760020001000401C1000406010004089
:1084200000C008409010004094100040BC10004074
:10843000C410004070B582B012F0E6FF24223D4B1C
:108440001A703D4BDB7C13B901223A4B1A700121A3
:10845000022012F0EFFF01212C2012F0EBFF01218E
:10846000082012F0E7FF334C0121207812F0E2FFE0
:108470000121232012F0DEFF0121062012F0DAFF95
:108480000121292012F0D6FF0121002012F0D2FF95
:108490000121172012F0CEFF0121182012F0CAFF8F
:1084A0000121192012F0C6FF01211A2012F0C2FF8B
:1084B000214B002283F82C201A729A709A7183F84B
:1084C000292021785A5483F8232001211970DA7564
:1084D0001A765A769A76194C2146032013F008FC36
:1084E0001749206813F010FD4FF480224FF08043AD
:1084F000C3F82422134C0226C4F8F86F0323C4F8EF
:10850000003EC4F8083E1049072012F0CFFE0F4B82
:108510001B680F4D009522223146204600F032FCA8
:108520000C490D4B1B68DB684B60286800F04EFC63
:1085300002B070BD1419002000C0084018190020B6
:10854000D086000000800940818D0000740A002060
:108550001019002000000020100000200C4B002209
:1085600083F829200B4909785A5483F823209A71FB
:108570001A729A704FF4C473074A1360283213605A
:10858000183213600C32136004321360704700BF5E
:1085900000C00840141900204C10004008B5FFF737
:1085A00099FE044B01229A7183F82320024909782D
:1085B0005A5408BD00C008401419002038B51F4B9C
:1085C0005A6942F002025A615A6A42F4E0225A623F
:1085D000D3F8882042F47002C3F888204FF0E023DB
:1085E000596801F00F0101314901F02928BFF0213C
:1085F00061B10022124CE020104D53B2002B17DB6A
:10860000234483F8000301328A42F6D1FFF762FE69
:108610000C4B002B08DD0C490C4A51F8040B42F8B6
:10862000040B043B002BF8DC0022094B1A6038BD18
:1086300002F00F03043B2B441876E4E700ED00E062
:1086400000E100E0AC00000024110300B8090020A4
:10865000640A00204FF0FF30704710467047D2B1D7
:108660008A184FF0604004E00B78037001318A42B1
:1086700011D0D0F8803E13F0010FF7D0D0F8003EB3
:1086800013F0010FF2D00368002BEDD100BF036897
:10869000002BFBD0E8E70020704700207047002047
:1086A00070470228CCBF0020012070470346064ACD
:1086B000126822B1044A10680344136070470349EA
:1086C000014A1160F6E700BF0C0B00203078002053
:1086D00007000000100D0020000C00000800000042
:1086E000100B002000020000030000000100000049
:1086F000000000000B00000001000000000000006E
:108700000100000000C201000000000000000000A5
:10871000000000000000000010B584B004A9002390
:1087200041F8043D022012F067FDF8B9039818B132
:108730004FF0FF320E4B5A60002300934FF47F72CC
:108740000C4912F091FD039B73B1094B9C6803A87F
:1087500012F074FD074BD3F8FC33A34202D1054A53
:10876000054B1A6004B010BD0024F0E70024F1E7C7
:108770000050094000800300100000209FED010A16
:10878000704700BF000044C2020000009C16DC05D8
:10879000000100000050434B000050C10000804128
:1087A00000000000000000000000000000000000C9
:1087B00000000000000000000000000000000000B9
:1087C00000000000000000000000000000000000A9
:1087D0000000000000000000000000000000000099
:1087E0000000000000000000000000000000000089
:1087F0000000000000000000000000000000000079
:10880000000000000000E147000000000000000040
:108810000000000000000000000000000000000058
:108820000000000000000000000000000000000048
:1088300000000000000000006C00650063006B0099
:108840006100730065006D006D0065006C002E0016
:10885000640065002F00720061000000000000004D
:108860000000000000000000000000000000000008
:1088700000000000000000000000000000000000F8
:1088800000000000000000000000000000000000E8
:1088900000000000000000000000000000000000D8
:1088A00000000000000000000000000000000000C8
:1088B000000000000000000053006F006E00640024
:1088C00065006E0067006F007400740020005200A5
:1088D0006100000000000000000000000000000037
:1088E0000000000000000000000000000000000088
:1088F0000000000000000000000000000000000078
:108900000000000000000000000000000000000067
:108910000000000000000000000000000000000057
:108B8000000000000000000030B4046845684FF4A5
:108B90008033AB4083F47023154D45EA01110B433C
:108BA000C4F8203E0168D1F8083413F4807FFAD06D
:108BB000104BC4F8203E03F54013C4F8203E036870
:108BC000D3F8041E11F0400FFAD0D3F8300E400253
:108BD00080B2D3F8041E11F0400FFAD0D3F8303E23
:108BE000C3F3080303431360002030BC704700BF89
:108BF0000701700800000F0882B002AB03E9030010
:108C00000122034B83F83C20002002B0704700BFD4
:108C10001C19002082B002AB03E903000122024BC1
:108C20009A72002002B070471C19002050B330B473
:108C30000446042904BF930FC362056801206368DA
:108C400000FA03F31B0483F4702343EA124343F056
:108C50007463C5F8203E63689840030483F4702071
:108C600022F00F030B439BB243F077630343C5F835
:108C7000203E2268D2F8083413F4807FFAD0002016
:108C800030BC70476FF002007047000038B50546F1
:108C900090F909406407D0ED097A9FED0B0A67EE61
:108CA000807A90ED080A87EE800A14F095F80201A8
:108CB00022F0784222F00F0244F0C05422430021F7
:108CC0002846FFF7B3FF38BD00000047F8B505465A
:108CD00090ED080ADFED287A80EE270A14F072F88A
:108CE000F0EE007A30EE670A14F076F8064695ED5D
:108CF000080ADFED227A80EE270A14F06DF80446A8
:108D000007EE900AF8EE677A95ED0C0A67EE807A26
:108D100095ED080A80EE270A14F05EF807466A69A6
:108D2000002A24DDAB6A002B23DDE96811F4803FC3
:108D30000FD00120A40444EA87646B6944EA8314D9
:108D400044EA061444EA802203212846FFF76EFF16
:108D5000F8BD520103FB02F307EE903AF8EEE77A12
:108D600095ED080A80EE270A14F036F8E2E70120B4
:108D7000E0E70120DEE700BF001BB7490050C34712
:108D80007047000030B40F4C2060616022720022F6
:108D90006272042161610C4D2563A363C0F8001465
:108DA0000223C0F8243441F21113C0F80434D0F87F
:108DB000003443F00103C0F80034029B1C601046ED
:108DC00030BC70471C1900200000FA45002800F054
:108DD0000C812DE9F0432DED068B83B00C46054642
:108DE0000B78002B00F00481824FDFED83AA9FED0A
:108DF00083AADFED838ADFED839A9FED839A0EE0ED
:108E000005236B722846FFF741FF3A4601212846A9
:108E1000FFF70CFF14F8083F002B00F0E080013B47
:108E2000092BF7D801A252F823F000BF018E0000F1
:108E3000558E00005B8E0000618E0000678E000082
:108E40009D8E0000A38E0000A98E0000CB8E000036
:108E5000D18E000063682B62DCE76368EB60D9E7C2
:108E600023792B74D6E723792BB900220A212846CF
:108E7000FFF7DCFECEE7D5ED087A8AEEA70A13F0FD
:108E8000ABFF6379A279520542EA434242F01002F5
:108E9000E37942EA036242EA4012E7E723792B775B
:108EA000B8E76368AB61B5E7227963791B0543EAEC
:108EB000824343F40C3343F4F073A27943EA8252C1
:108EC00009212846FFF7B2FEA4E763682B63A1E7F8
:108ED000EA68120102F0F076D5ED057AF8EEE77A4D
:108EE00067EE8A7A67EEA87A95ED087A87EE870AA8
:108EF00013F072FFEB681A0B02F01002324342EAE1
:108F000040120E212846FFF791FEEA683F4B03EA24
:108F100002120F212846FFF789FE2846FFF7D6FEEA
:108F200000238DF8043005238DF8053004238DF8D7
:108F3000063001238DF8073095ED088A6B69002B08
:108F400005DD07EE903AF8EEE77A88EE278A2B8B5C
:108F5000DBBB4FF02A082E7CB6076B8B07EE903AEE
:108F6000F8EEE77A67EEA97A87EE887A17EE100AAC
:108F700019F07CFF41EC100B13F0B6FB51EC100B19
:108F80001AF0A0FA00EE100A13F026FF814607EE51
:108F9000908AB8EE670A60EE087A87EE890A13F0C5
:108FA0001BFF2A7F46EA021242EA095242EA802265
:108FB00008F0030802AB984418F8043C42EAC312D4
:108FC00004212846FFF732FE24E707EE903AF8EE38
:108FD000E77A88EEA70A13F0FFFE8046BBE7002081
:108FE00003B0BDEC068BBDE8F0836FF00200704764
:108FF0000020F5E7101042020000FA4F0000804800
:109000000050C347DB0FC9450050C348F03F0E0076
:1090100038B548B3044610EE105A002380F83C30AF
:10902000134B00F13D023221806B12F019FC656296
:10903000022363722046FFF729FE217A0D4A535C12
:109040001BB994F83C30002BF9D094F83C30DBB2DB
:10905000002B0CBF00256FF0050594F83D10A06BA8
:1090600012F0E4FB284638BD6FF00205FAE700BFB6
:10907000F98B000000C0084010B14161002070472A
:109080006FF00200704728B108B58162FFF71EFE3D
:10909000002008BD6FF00200704778B189B190EDF3
:1090A000087A4369002B05DD07EE903AF8EEE77A7F
:1090B00087EE277A81ED007A002070476FF002007A
:1090C00070476FF002007047F0B583B00023019342
:1090D000002852D00446002952D00D462B4B0B607D
:1090E000002380F83C302A4B00F13D020221806BC6
:1090F00012F0B6FB94F90930032B04D003236372FA
:109100002046FFF7C3FD207A224A135C1BB994F86E
:109110003C30002BF9D094F83D10A06B12F086FB88
:1091200001AA04212046FFF72FFD064658BB019AED
:10913000D10901F00F0702F07F03174850F827000C
:10914000034407EE903AFAEEEF7A9FED147A77EE49
:10915000C77AC5ED007A01F0030184F83410C2F338
:10916000412284F8352094F83C30DBB2002B18BF44
:109170006FF00106304603B0F0BD6FF00206F9E76C
:109180006FF00206F6E76FF00106F3E700002EC36A
:10919000F98B000000C00840B892000000000243B4
:1091A000F0B589B004460F466D463F4E0FCE0FC551
:1091B00096E80F0085E80F00002C71D094F9093073
:1091C000012B04D0012363722046FFF75FFD37486F
:1091D000237A037112F052F9002F14BF10250025D5
:1091E000E36A08AA02EBC30353F8203C5B0007EED6
:1091F000903AF8EE677A94ED080A80EE270A13F0A9
:10920000EBFD0646E36A08AA02EBC30353F81C3CD5
:109210005B0007EE903AF8EE677A94ED080A80EE6C
:10922000270A13F0D9FD420342EA46122A4342F0CC
:10923000206206212046FFF7F9FC002584F83C5007
:109240001B4B04F13D023221A06B12F009FBA57209
:1092500094ED080ADFED177A80EE270A13F0BCFDC3
:10926000450145F0100205212046FFF7DFFCA37AF7
:109270001BB994F83C30002BF9D094F83D10A06B4A
:1092800012F0D4FA0948237A0377183012F0F6F86E
:109290002A4605212046FFF7C9FC002009B0F0BD91
:1092A0006FF00200FAE700BFF892000014000020FF
:1092B000F98B0000005043475600000056000000A4
:1092C00056000000560000003A0000002600000092
:1092D000180000001800000000000000000000005E
:1092E000000000000000000000000000000000007E
:1092F0000000000000000000143101004CC6010015
:10930000283601004CC6010014310100D8D00100FC
:1093100014310100D8D0010038B52DED028B044680
:10932000DFED1C7AB4EEE70AF1EE10FA2ED4B0EEBF
:10933000408ADFED197AB4EE670AF1EE10FAC8BF81
:10934000B0EE678A154D4FF080436B600121206CB1
:109350000CF08CFE0121E06A0DF03BFF9FED100A3E
:1093600038EE400A0F4B1868FFF752FE84ED168A5C
:109370004FF000436B600021206C0CF077FE002161
:10938000E06A0DF026FFBDEC028B38BD9FED018A2F
:10939000D8E700BF20BCBE4DC1A4C14D00B00840FD
:1093A0000050C3471019002010B582B002AB03E98A
:1093B0000300194B586858B39DF80030162B02D0A3
:1093C000002002B010BD9DF90330012B0AD19DF998
:1093D0000110DDED017AB8EE670A104B186801F054
:1093E000FDFCEDE7002111F010FD02460028E7D05A
:1093F0000024034603F8044B02A911E9030083E8A3
:1094000003001146044B586811F023FD2046D8E7AD
:109410006FF00100D5E700BF201A0020700A00207D
:1094200008B5114B5A68EAB110B101280DD008BD3A
:109430000021104611F0E9FC014698B102230370A7
:10944000094B586811F005FD08BD0021104611F0C8
:10945000DCFC014630B100230370C371024B586835
:1094600011F0F7FC08BD00BF201A00201C4B1B693F
:1094700013F0010F26D02DE9F0411A4D00242E469D
:10948000DFF86480274604E0013405F58165042C8B
:1094900013D004EBC41316F83330002BF4D06B78E0
:1094A000002BF1D13946D8F8040011F0AEFC0028A9
:1094B000EAD0012202704460E6E70122084B9A617B
:1094C000BDE8F08113F0020F02D1054A93617047A5
:1094D000054BDA6D1A660222014B9A61704700BF94
:1094E00000B0084000000220201A002090ED160A6B
:1094F00070470000F0B587B005460F462A4B186844
:1095000012F0A3FC044638461BF0BAFE0A3084422F
:1095100047DB2B46254A142101A81BF027FB01A895
:109520001BF0AEFE024606460DF1030100231C4669
:1095300003E011F8015F2C440133B342F9DB01A9C8
:10954000194B186812F096FC38461BF099FE02463B
:109550000646791E002303E011F8015F2C44013315
:10956000B342F9DB104D3946286812F083FC2C34E5
:109570000F4A82FB0432E317C3EB6213642202FB3F
:1095800013430C4A142101A81BF0F0FA01A81BF0A8
:1095900077FE024601A9286812F06CFC002007B093
:1095A000F0BD4FF0FF30FAE71819002030AC000092
:1095B0001F85EB5138AC000000B587B090ED167AEE
:1095C000DFED0A7AC7EE276A16EE900A19F04EFC14
:1095D00002460B46064901A81BF036FB01A90320F1
:1095E000FFF788FF07B05DF804FB00BF0024744953
:1095F00040AC000090F955308B421ED030B52DEDB7
:10960000028B83B00D46B0EE408A0446806C03F0B6
:1096100097F984F855500121974B1868FFF7C0FD62
:10962000082D39D8DFE815F0D9008B0012003D0075
:10963000F3006400BF000D01A500D0ED167AF4EE32
:10964000407AF1EE10FAD9D1002070478A4D0421FA
:109650002868FFF711FD89492868FFF7B7FBB0EECE
:10966000480A2046FFF758FE2046FFF7A5FF01A94C
:109670002868FFF712FDA46CDFED817A9DED010AE9
:1096800080EE270A13F0A8FB7E4A0146204603F02D
:109690001FF904227C4B5A60002003B0BDEC028B02
:1096A00030BD754D04212868FFF7E6FC774928682E
:1096B000FFF78CFBB0EE480A2046FFF72DFE204650
:1096C000FFF77AFF01A92868FFF7E7FCA46CDFED3C
:1096D0006C7A9DED010A80EE270A13F07DFB6C4A3F
:1096E0000146204603F0F4F80422674B5A60D3E7A2
:1096F000614D04212868FFF7BFFC66492868FFF721
:1097000065FBB0EE480A2046FFF706FE2046FFF74D
:1097100053FF01A92868FFF7C0FCA46CDFED587A5D
:109720009DED010A80EE270A13F056FB5A4A0146C6
:10973000204603F0CDF80422534B5A60ACE74E4D5F
:1097400004212868FFF798FC40F6C4112868FFF749
:109750009AFC52492868FFF739FBB0EE480A2046C8
:10976000FFF7DAFD2046FFF727FF0222464B5A603B
:1097700092E7414D04212868FFF77EFC4FF4166103
:109780002868FFF780FC46492868FFF71FFBB0EE0A
:10979000480A2046FFF7C0FD2046FFF70DFF402294
:1097A000394B5A6078E7344D04212868FFF764FC90
:1097B0004FF416612868FFF766FC3A492868FFF7FE
:1097C00005FBB0EE480A2046FFF7A6FD2046FFF74E
:1097D000F3FE20222C4B5A605EE7274D04212868B7
:1097E000FFF74AFC4FF496512868FFF74CFC2E49CE
:1097F0002868FFF7EBFAB0EE480A2046FFF78CFD29
:109800002046FFF7D9FE01221F4B5A6044E71A4D4C
:1098100003212868FFF730FC4FF416512868FFF742
:1098200032FC22492868FFF7D1FAB0EE480A2046F8
:10983000FFF772FD2046FFF7BFFE0822124B5A6069
:109840002AE70D4D04212868FFF716FC4FF49651C6
:109850002868FFF718FC16492868FFF7B7FAB0EE3A
:10986000480A2046FFF758FD2046FFF7A5FE1022C4
:10987000054B5A6010E700BF10190020F8A800003F
:1098800000007A462569010000B0084040A90000A8
:109890004178010088A90000D1130100D0A900007F
:1098A00018AA000060AA0000A8AA0000F0AA000000
:1098B00038AB0000034BC3F8D002012283F8CC225E
:1098C00000207047201A002030B583B005460C46B2
:1098D00001A9114B1868FFF7F7FB95F834317BB9F4
:1098E0000E4B1B681B6907EE903A9DED017A77EEEF
:1098F000277ACDED017A019B2360002003B030BDB3
:10990000064B1B685B6907EE903A9DED017A77EE96
:10991000277ACDED017AEEE7101900201000002023
:1099200090ED180A70470000024B0360002083F896
:1099300054007047201A00202DE9F041BAB00446C7
:10994000038843B1B3F5CB6F5BD0002303800320C2
:109950003AB0BDE8F0810021AD4811F054FAAD4BAA
:109960005860AD4D05F5227011F088FD03F0DEFE64
:1099700004F11C0009F060FD04F120000BF02CF84C
:1099800004F1280008F058FA04F1240007F088F9DF
:1099900004F140000CF084FA04F12C000DF056FBA9
:1099A00004F130000EF070FB04F134000EF0F0FE14
:1099B00004F138000FF07CFB04F1440010F0A8FB28
:1099C00004F13C000FF094FF04F14801002002F084
:1099D00073FF0022012105F5287011F0D9F96061AB
:1099E000142111F0F7F90122002105F52A7011F078
:1099F000CFF9A06144F6206111F0ECF94FF4CB638C
:109A0000238006AD00226168284611F02AFA04F18D
:109A1000080395E8070083E80700064604F23515B9
:109A20004FF4C87229467D4B186812F0D1F900280E
:109A300027DD94F8CC3253B1002384F8CC32D4F82B
:109A4000D0323BB37649754B186812F05DFA94F842
:109A500035312BBBA368202BD0D1E168714B196045
:109A60000B78012B00F05084002B00F09683022B22
:109A700000F052856B4B1968664B586811F00CFA70
:109A8000BCE7002384F83531202E18BF00207FF476
:109A90005FAFCEE76449614B186812F035FAD6E73C
:109AA00044F62061A06911F095F994F8353113B1AD
:109AB000232384F835310AAA5C4928461BF0EAF8CA
:109AC000012803D0002384F83531C3E70A9B4D2BCE
:109AD000F8D801A252F823F0319C00003F9D00000D
:109AE000C59A0000819D0000EB9D0000C59A000012
:109AF000F79D00003D9F0000C59A000011A00000E6
:109B0000C59A0000C59A0000C59A0000C59A0000D9
:109B1000C59A0000C59A0000C59A0000C59A0000C9
:109B2000C59A0000C59A0000C59A0000C59A0000B9
:109B3000C59A0000C59A0000C59A0000C59A0000A9
:109B4000C59A0000C59A0000C59A0000C59A000099
:109B5000C59A0000C59A0000C59A0000C59A000089
:109B6000C59A0000C59A0000C59A0000C59A000079
:109B7000C59A0000C59A0000C59A0000C59A000069
:109B8000C59A0000C59A0000C59A0000C59A000059
:109B9000C59A0000C59A0000C59A0000C59A000049
:109BA000C59A0000C59A0000C59A0000C59A000039
:109BB000C59A0000C59A0000C59A0000C59A000029
:109BC000C59A0000C59A0000C59A0000C59A000019
:109BD000C59A0000C59A0000C59A0000C59A000009
:109BE000C59A0000C59A0000C59A0000C59A0000F9
:109BF000C59A0000C59A0000C59A0000C59A0000E9
:109C0000C59A0000C59A0000C59A00005FA1000037
:109C100044000020201A0020F8A800001819002095
:109C2000A8AB00005C190020C0AB000048AC0000ED
:109C30003AAA002342F8BC3DA74928461BF02AF85F
:109C400001287FF43FAFA54DA549286812F05CF9C3
:109C50000322A449286812F00DF9A34BDB7CDBB288
:109C6000002B14BF0226032600253AA941F8B85D4F
:109C70009E4B186802F0BAFD0C9B04939C4B1B682A
:109C80005B8803939B4B0293019500962B239A4A82
:109C90008C2117A81AF06AFF17A92846FFF72AFC9B
:109CA0002046FFF789FC954D286801F06FF80346C0
:109CB000934A14210FA81AF059FF0FA90320FFF7A8
:109CC00019FC286801F084F803468E4A14210FA875
:109CD0001AF04CFF0FA90320FFF70CFC0DA804F0AD
:109CE000E1FA08B3E06909F0CDFD206A0BF056F8FF
:109CF000A06A08F09FF9206C0CF07CF9E06A0DF086
:109D000053FA206B0EF0BAFA606B0EF007FEA06BF0
:109D10000FF09AFA606A07F095F8E06B0FF0ACFE6E
:109D2000606C10F0ABFBCDE60D9B774A20210FA8AD
:109D30001AF01CFF0FA90320FFF7DCFBD2E717AADC
:109D4000724928461AF0A6FF01287FF4BBAE6B4B80
:109D50001D68179819F08AF800226D4B19F0DAF88F
:109D600041EC100B12F0BCFD4FF47A7303FB00F0D2
:109D700007EE900AB8EEE70A284601F01BF8A1E6C4
:109D80000FAA644928461AF085FF01287FF49AAE8D
:109D90000F9B013B072B26D8DFE803F00417191BA4
:109DA0001D1F21230121554D286801F00AF828685C
:109DB00001F00EF80346534A282117A81AF0D6FEE0
:109DC00017A90320FFF796FB7CE60221EBE70321AE
:109DD000E9E70421E7E70521E5E70621E3E70721B5
:109DE000E1E70821DFE70021DDE729464A4B186853
:109DF00001F0B0FA66E60CAB0BAA484928461AF007
:109E000049FF02287FF45EAE0B9B012B7FF45AAE14
:109E10000C9B002B7FF456AE0FAB0DAA4049284691
:109E20001AF038FF02287FF44DAE9DF93C303D4AD0
:109E30001792092B7FD8DFE803F01D242B327E0513
:109E40003940477717AA0D99606B0EF07DFD17AA70
:109E50000D99A06B0FF00EFA04219DED170AB4EED8
:109E6000400AF1EE10FABFF52DAE244B186800F051
:109E7000F1FF27E617AA0D99E06909F019FD002105
:109E8000EBE717AA0D99206A0AF09EFF0021E4E78C
:109E900017AA0D99A06A08F0E3F80121DDE717AAD7
:109EA0000D99206C0CF0BCF80221D6E717AA0D9989
:109EB000606A06F0DDFF0521CFE717AA0D99E06B78
:109EC0000FF0F0FD0721C8E717AA0D99606C10F09C
:109ED000EBFA0621C1E700BF4CAC000018190020C6
:109EE000D8AB000058AC000000C00840E00A0020D9
:109EF00010000020C4B200005CAC0000700A00201A
:109F000074AC00007CAC000084AC00008CAC0000A1
:109F100000408F4094AC0000DC0A00209CAC0000A4
:109F2000A8AC00000000C07F17AA0D99206B0EF0AE
:109F3000BBF9082191E74FF0FF318EE70DAAA34945
:109F400028461AF0A7FE01287FF4BCAD0D9B033B09
:109F5000042B3FF6B7AD01A252F823F0719F000029
:109F6000C59A0000A99F0000CF9F0000ED9F000050
:109F70000FAA974928461AF08DFE01287FF4A2AD5A
:109F80000F99944B186800F0EBFE0F9B023B012BDE
:109F900004D91421606910F01DFF93E50023A36527
:109FA0002046FFF709FBF4E717AB0FAA8A492846BA
:109FB0001AF070FE02287FF485AD0F9A012A14BFB3
:109FC000002201221799E06909F098FC7AE517ABA5
:109FD0000FAA824928461AF05DFE02287FF472AD6E
:109FE0009DED170A206A0AF0FDFC6BE517AB0FAA7E
:109FF0007B4928461AF04EFE02287FF463ADDDED62
:10A00000170A9DED0F0A734B186800F053FF59E5CE
:10A010000BAA6E4928461AF03DFE01287FF452AD86
:10A020000B9B2A2B0ED0632B65D0002B7FF44AADFF
:10A0300000226C4917A81AF007FE17A90920FFF79C
:10A0400059FA3FE53AAA4FF0FF3342F8B83D60496C
:10A0500028461AF01FFE01280CD00B9A624917A857
:10A060001AF0F2FD17A90920FFF744FA0023C4F8FB
:10A07000C83227E5D4F8C8220C9B9A42EDD10B9A3E
:10A08000584917A81AF0E0FD17A90920FFF732FA7E
:10A090004FF47A7010F06AFE72B64FF08042D2F838
:10A0A0000018524B0B43C2F80038A06C02F048FC79
:10A0B0004F4C00220DA9204611F07EFB00220FA973
:10A0C000204611F08DFB00220D99084611F01EFB71
:10A0D00020B900220F99084611F030FBBFF34F8FD3
:10A0E0004449CA6802F4E062434B1343CB60BFF3B8
:10A0F0004F8F00BFFDE7414B18681AF0B3FC1AF010
:10A10000BBFC4FF47A7590FBF5F606FB15061AF0CA
:10A11000B3FC90FBF5F303FB1500632ED8BF643648
:10A12000632805DC643003E0B0F5FA7FC8BF64380B
:10A130003318B3F57A7F04DDB6F5FA7FF4DD643EBB
:10A14000F6E7C4F8C832009033460B9A2C4917A89A
:10A150001AF07AFD17A90920FFF7CCF9B2E40FAA8B
:10A160001A4928461AF096FD01287FF4ABAC0F9BE4
:10A170000D2B7FF4A7AC17AA154928461AF08AFDC3
:10A1800001287FF49FAC179807F056F917980DF047
:10A1900073FB17980CF0E2FB94E491F907308BB352
:10A1A000022B7FF467AC4B79052B00F08980072BDD
:10A1B00000F098800A2B7FF45DAC8B7994ED160A41
:10A1C0000F228968606A06F0B3FD53E494AC000086
:10A1D000BCAC0000700A0020C8AC0000D8AC000085
:10A1E000E8AC0000F8AC000000AD00002800C4C0DE
:10A1F000F07F030000ED00E00400FA057476002013
:10A2000008AD00004FF08045D5F80028B34B13434C
:10A21000C5F800380121B24B186800F0A1FDB14922
:10A22000B14B186811F070FE012684F84C60AF4FF6
:10A230007E60FEF793F9AE4BD3F800800421AD4861
:10A2400010F004FFC5F8A466AB4A536C23F0440336
:10A2500043F040035364D5F8003643F4003343F42D
:10A26000C873C5F800364FF4813010F089FFC7F885
:10A2700084600421404610F0E9FEFEF78FF90023C8
:10A2800084F84C300A2010F071FD94F95510FF232A
:10A2900084F8553094ED160A2046FFF7ABF9974B3A
:10A2A0001A68C5F808285B68C5F80438D5F800387E
:10A2B000934A1A40934B1343C5F80038FFF7DABBB3
:10A2C000A06C02F049FB904B1B68DFED900AC0EEDA
:10A2D000200A94ED160A07229968206C0BF0EAFD1B
:10A2E000FFF7C8BBA06C02F037FB874B1B68DFEDA4
:10A2F000880AC0EE200A94ED160A00229968E06AE6
:10A300000CF0AEFEFFF7B6BB4D6805EBC513DB00E6
:10A31000804AD35C002B3FF4ADAB94ED160AB5EE4A
:10A32000400AF1EE10FA00F0D48205EBC512794B29
:10A3300003EBC2039B780A2B00F28C80DFE813F05A
:10A340004A003A0072005A000D001C008A002B00DF
:10A35000BD020B00BF020D21B2E205EBC5136D4932
:10A3600001EBC301CA220831606B0EF017FA5C4B97
:10A37000186800F0E5FDACE205EBC513654901EB9B
:10A38000C3018C220831A06B0EF098FE544B186864
:10A3900000F0D6FD9DE24FF481615E4B01FB05317B
:10A3A0002E220831E06B0FF0A9FA4D4B186800F02F
:10A3B000C7FD8EE24FF48161564B01FB05314FF42E
:10A3C000FF720831E06909F03FF8454B186800F06A
:10A3D000B7FD7EE24FF481614E4B01FB053140F247
:10A3E00049220831206A0AF01FFB3D4B186800F033
:10A3F000A7FD6EE2474A4FF4816303FB05F303F1C7
:10A4000008011344DB88009342230A440321A06A15
:10A4100007F018FD002840F05C82314B186800F00E
:10A420008FFD56E23B4A4FF4816303FB05F303F1D2
:10A4300008011344DB88009342230A440421A06AE4
:10A4400007F000FD002840F04482254B186800F01A
:10A4500077FD3EE2002133E2606C4FF481622D4BC8
:10A4600002FB053208324B1E0D2B23D8DFE803F028
:10A47000071316162222221C1E22201A1A184FF425
:10A48000FF730FF069FE002840F02382144B186818
:10A4900000F056FD1DE240F24923F2E74223F0E7C7
:10A4A0002823EEE73023ECE7CA23EAE78C23E8E72A
:10A4B0002E23E6E70223E4E74FF48162154B02FB0B
:10A4C000053228230832206B0DF0E4FD002840F00F
:10A4D0000082034B186800F033FDFAE12800C4C085
:10A4E000700A0020D8AB00001819002000E100E03D
:10A4F000640A0020001BB700000002400000012099
:10A50000D7FF3B3F0800C4C05C1900209A99A9C03E
:10A510009A9929C000000220BD4B186800F036FC53
:10A52000022800F06081BB4A536801335360012B5D
:10A5300067DD17A9B84B1868FEF7C6FDB54BD3ED1C
:10A54000027A9FEDB67AF4EEC77AF1EE10FA14DAD9
:10A550009FEDB37AF4EEC77AF1EE10FAC0F20E81F5
:10A560009FEDB07A37EE877ADFEDAF6A27EE267A75
:10A57000DFEDAE6A77EE266A01E0DFEDAD6A9DEDB4
:10A58000177A37EEC77A27EE267A77EEC77AA14B8D
:10A59000C3ED027A94F83431002B40F0F280A54BE1
:10A5A0001B681B6907EE103A77EE877AC4ED177ABD
:10A5B00017EE900A18F05AFC02460B469E4917A85F
:10A5C0001AF042FB17A90320FEF794FF0022914BDB
:10A5D0005A60D4ED177A994B93F82930002B40F04C
:10A5E000E9809FED977AF4EEC77AF1EE10FA40F227
:10A5F000D080924B93F82930B3FA83F35B0984F847
:10A600003431844B1B690133C72B00F32B81814A02
:10A610001361D4F82C110022884B1A704FF080433C
:10A620004FF00062C3F820224FF48062C3F8302656
:10A630004FF40022C3F830264FF40002C3F830264E
:10A64000804B1B685B09804AA2FB0323DB090E9346
:10A650000E9B5A1E0E92002BFAD17C4B0122DA6619
:10A660001A671A46136F13F0010FFBD1774B47F2AD
:10A6700001621A609A6822F000429A60DA6822F059
:10A680000042DA609A68920C920442F444529A6052
:10A69000A3F5A033DB7C23B96C4A936843F08003B5
:10A6A00093606A4B9A6842F480229A609A6842F0FA
:10A6B00000429A609A6842F080629A601A46136C6F
:10A6C000002BFCDA5D4AD27C002A00F0DD809BB2D0
:10A6D00007EE903AFBEEC87AB0EE087A67EE877A1A
:10A6E00077EEA77A4FF080434FF40002C3F820269C
:10A6F0004FF40022C3F820264FF48062C3F82026CE
:10A700004FF00062C3F84022012203F50C231A70B7
:10A7100004EB8101C1ED197AD4F82C311344312BAB
:10A72000C8BF0023C4F82C3104F1640204F596710B
:10A730001346DFED477AB3EC017A77EE877A8B42E6
:10A74000F9D19FED447AC7EE876A00219FED407AE8
:10A75000F2EC017AF4EEE76AF1EE10FA9CBF37EE04
:10A76000277A01319A42F3D107EE901AF8EEE77A90
:10A77000C7EE276AC4ED4C6AFFF77CB9DFED2B6AA0
:10A78000FDE62C4B1B685B6907EE103A77EE877A83
:10A790000CE7314E204D06F53E712868FEF716FB9A
:10A7A0000122264B83F8292006F542712868FEF71E
:10A7B0000DFB1EE79FED297AF4EEC77AF1EE10FA51
:10A7C000FFF617AF244E144D06F546712868FEF7C4
:10A7D000FDFA0022194B83F8292006F54A712868F2
:10A7E000FEF7F4FA05E70B4BDB683BB1094BDB687E
:10A7F0000133632B07DC074AD36002E718490320C3
:10A80000FEF778FEF2E70022024BDA60F9E600BFBD
:10A81000700A00205C190020101900200000C8C236
:10A820000000E6C20000E6428988083DCDCCCC3D60
:10A830009A99193F1000002014AD000000C0084094
:10A840000000A0C2640A0020C55A7C0A00000A4029
:10A850000000000000004842F8A8000000008CC280
:10A860001CAD000000221F4B1A61D4F8300118F013
:10A87000FDFA02460B461C4917A81AF0E5F917A97C
:10A880000320FEF737FEC4E6184AD26B9BB207EEF0
:10A89000903AB8EE677A93B207EE903AF8EE677A9C
:10A8A00077EE677A9FED127A67EE877AB0EE087AD4
:10A8B00067EE877A77EEA77A14E70C2100E00E2185
:10A8C000A1F10C03DBB2012B7FF6C6AD0E293FF4DC
:10A8D000F3AD05EBC515EB000021064AD154FFF797
:10A8E000C9B800BF5C19002020AD000000000A407C
:10A8F000000080370000022001000000000000007E
:10A900000300000009400D000400000002000000E8
:10A91000050000000000000006000000000000002C
:10A920000700000000004C1D090000000000FA456F
:10A930000A0000000000000000000000000000000D
:10A9400001000000000000000300000009400B00AF
:10A9500004000000020000000500000000000000EC
:10A960000600000000000000070000000000AC0D21
:10A97000090000000000FA450A0000000000000085
:10A9800000000000000000000100000000000000C6
:10A990000300000009400D0004000000000000005A
:10A9A000050000000000000006000000000000009C
:10A9B000070000000000B80B090000000000FA4585
:10A9C0000A0000000000000000000000000000007D
:10A9D00001000000000000000300000000E0000093
:10A9E000040000000100000005000000010B02143B
:10A9F0000600000001000000070000006009530786
:10AA0000090000000000FA450A00000000000000F4
:10AA10000000000000000000010000000000000035
:10AA20000300000000E0000004000000010000003E
:10AA300005000000010B02140600000001000000E8
:10AA40000700000060095307090000000000FA45F4
:10AA50000A000000000000000000000000000000EC
:10AA600001000000000000000300000000E0000002
:10AA7000040000000100000005000000010B0214AA
:10AA80000600000001000000070000006009080740
:10AA9000090000000000FA450A0000000000000064
:10AAA00000000000000000000100000000000000A5
:10AAB0000300000000E000000400000001000000AE
:10AAC00005000000010B0414060000000100000056
:10AAD000070000006009100E090000000000FA45A0
:10AAE0000A0000000000000000000000000000005C
:10AAF00001000000000000000300000000E0000072
:10AB0000040000000200000005000000010B041416
:10AB10000600000000000000070000006009201C83
:10AB2000090000000000FA450A00000000000000D3
:10AB30000000000000000000010000000000000014
:10AB40000300000000E0000004000000020000001C
:10AB500005000000010B04140600000001000000C5
:10AB6000070000003818100E090000000000FA4528
:10AB70000A000000000000000000000000000000CB
:10AB8000010000000C010004A99300000000000077
:10AB9000000000000000000021940000E8190020DF
:10ABA00021940000041A00200C00000001000000A5
:10ABB0000000000000000000000000000000000095
:10ABC0000C00000000000000000000000000000079
:10ABD00000000000000000000D0000000000000068
:10ABE0000000000000000000000000000000000065
:10ABF000080000000100000000000000000000004C
:10AC0000080000000000000000000000000000003C
:10AC10000800000001010100000000000000000029
:10AC2000080000000001010000000000000000001A
:10AC30002325642C000000002C25640D000000007A
:10AC4000312C252E336600002325640023252A6439
:10AC50002C256C64000000000D0D0D00312C2564C6
:10AC60002C25642C25642C25732C25642C256C64E0
:10AC700000000000322C256400000000352C256403
:10AC800000000000382C25730000000023252A64F2
:10AC90002C25660023252A642C25640023252A649C
:10ACA0002C25642C2564000023252A642C252A6485
:10ACB0002C252A642C25642C2564000023252A6475
:10ACC0002C252A642C25640023252A642C252A643B
:10ACD0002C25642C2564000023252A642C252A6455
:10ACE0002C25642C2566000023252A642C252A6443
:10ACF0002C25662C2566000025642C300000000001
:10AD000025642C310000000025642C25642C25646A
:10AD100000000000332C252E31660000332C00008B
:10AD2000362C252E326600000122024B83F82820A3
:10AD3000704700BF101D002050B1074B0360074A49
:10AD4000DA6202F5B70202F558621A630020704712
:10AD50006FF00200704700BF101D00200084D7175D
:10AD6000034650B1012909D002290BD029B902228A
:10AD700080F82220012283F828207047012280F8E1
:10AD80002220F7E7032280F82220F3E768B190F849
:10AD90002230022B0CD0032B05D0012B0CBF01203D
:10ADA0004FF0FF307047022070474FF0FF30704780
:10ADB0000020704720B180ED070A012280F828208A
:10ADC000704720B180F82010012280F828207047B9
:10ADD00010B190F920007047002070474369FBB91B
:10ADE00007E01B4A1268DA601B68002B2ED1012392
:10ADF00063BB70B50D4610EE104A064610210120C7
:10AE000019F09CF9014600B344600572104B1B68B1
:10AE1000C3607269A2B9706170BD1B68002BE7D076
:10AE2000D3ED017AF4EE407AF1EE10FAF5D193F910
:10AE300008208A42D5D01B68002BF1D1D8E71A46EA
:10AE40001368002BFBD1116070BD70BD704700BF4F
:10AE50007476002070B52DED028B04460E46DFEDB2
:10AE6000147A80EE270A12F039F804F114056469A7
:10AE7000DCB1B0EE408ADFED0E8A02E025462468A0
:10AE80009CB194F90830B342F8D194ED010A80EEF8
:10AE9000280A12F023F8B4EE408AF1EE10FAEDD150
:10AEA00023682B60204619F093F9BDEC028B70BD2E
:10AEB00000007A4498B338B52DED048B0446DFEDDD
:10AEC0001C7AB4EEE70AF1EE10FA2BD4DFED197A12
:10AED000F4EEE70AF1EE10FA27DCB0EE608A9FED9F
:10AEE000169A20EE090ADFED158A80EE280A11F085
:10AEF00021FF11F071FF42F2107505FB00F0E062D6
:10AF000028EE090A80EE280A11F07EFE11F064FF97
:10AF100005FB00F020630020BDEC048B38BD6FF012
:10AF2000020070476FF00200F6E76FF00200F3E7EF
:10AF30000080C5430000CD430024744900401C46F6
:10AF400038B108B5012280F82820024819F080FDA8
:10AF500008BD704790B200002DE9F04F2DED048B35
:10AF60008BB002AF8246038840F2BB1293422AD0D4
:10AF7000B3F5E67F23D043B10023038003202437B9
:10AF8000BD46BDEC048BBDE8F08F0021AE480FF04C
:10AF90003AFFAE4B5860AE4BCAF81C3000218AF81D
:10AFA000201001238AF822308AF823305246A9481B
:10AFB0000FF0EEFECAF824000A210FF00BFF40F25A
:10AFC000BB13AAF8003007F110040022DAF80410CD
:10AFD00020460FF046FF0AF1080394E8070083E8D3
:10AFE00007009AF82830202802D00BB90020C6E7C5
:10AFF000002BE4D0DAF824000FF0FEFE00238AF8DC
:10B0000028309AF82230032B0DD0904B93F8223041
:10B01000012B00F0D580022B00F0F68001249FED7B
:10B020008E8A0021D3E09AF82130002B33D1C7F863
:10B0300004D0E6B002ABFB6090B002AB1E463B60B2
:10B04000824CD4ED0D7AF8EE677A9FED847AC7EEE4
:10B05000876A16EE900A17F009FF79A3D3E9002357
:10B06000CDE9002302460B467D49304619F0ECFD40
:10B07000636BE26A93421BD3216B8B4218D24FF071
:10B080000A0B9FED789ADFED788ADFED789AC7F8A2
:10B0900008A0B24642E002219FED750A754B186880
:10B0A000FEF7A8FA00238AF82130C0E7D7F808A0F5
:10B0B000664B5A6376E0D7F808A0F9E7002BC3BFC8
:10B0C00007EE903AF8EEE77A86EEA78AB0EE698A44
:10B0D00050461AF0D5F8044678EE287AB2EE047A93
:10B0E00067EE877A17EE900A17F0C0FE02460B460D
:10B0F00061490AEB040019F0A7FD544A536B03F5AC
:10B100001C5310335363BBF1010B49D04F4AD26A31
:10B110009A42D0D84D49096B9942C7D9A3F5B933A2
:10B12000A3F58C7307EE903AB8EE670A534B186894
:10B13000FDF76EFF60BBFC68254604F5C8799FEDFE
:10B14000468ADFF8308126462146D8F80000FEF70F
:10B15000BBFB0434D6ED007A38EE278AA145F2D144
:10B16000C8EE095A0023DFED3C6AB1EE006AB5EC87
:10B17000017A77EE657AF0EEE77AF4EEC67AF1EED0
:10B1800010FA44BF76EE876A0133A542EFD195E706
:10B1900050461AF075F83A4B1B882AF80030ACE795
:10B1A000D7F808A039680520FEF7A4F9D7F804D02D
:10B1B00001208AF828004FF4E673AAF80030DEE692
:10B1C000224B93F9201093ED078A4FF47A74B0EE76
:10B1D000480A284B1868FEF70DFA9AF82230012B1E
:10B1E00026D0DFED1E7A88EE277A17EE100A17F0C8
:10B1F0003DFE02460B46234819F0E2FB2146DAF8F1
:10B2000024000FF0E7FDDAE6104B9B694BB193F990
:10B21000081093ED018A1A680C4B9A6140F6980465
:10B22000D5E70A4A53699361002BF0D10124E5E781
:10B23000104B1868FEF75AF98AED070AD1E700BFEC
:10B2400000000040E17A843F64000020101D0020CF
:10B25000AF2AC14D88B200000000000000247449EC
:10B26000A0B200000000C84200000C4300000CC364
:10B2700020BCBE4D6C0A0020ACB2000010190020AA
:10B28000E80E0100B4B2000029AD0000F41C00205B
:10B2900076616C6964206672616D650D0000000066
:10B2A000252E33662C252E33660000002C252E30EB
:10B2B000660000007363616E6E6572204020252E6B
:10B2C00033660D0A00000000837C13B90023184682
:10B2D000704730B583B0044672B6038A194D05EB4A
:10B2E0000325002201A9284610F066FA00226946CB
:10B2F000284610F075FA00220199084610F006FA67
:10B30000034628B10022A27462B6184603B030BDCD
:10B3100000220099084610F011FA03460028F1D1E6
:10B3200000220199084610F0F1F903460028E9D1FE
:10B3300000234FF4807204F11401284610F01CFA27
:10B340000346DFE700E00300014B03600020704785
:10B35000D41D00202DE9F0478AB005460C4609AA05
:10B360009F49204619F096FC012803D000200AB01E
:10B37000BDE8F087099B092B00F27481DFE813F028
:10B380000A002E00CB00720172017201720172017B
:10B3900072014001AB7B022B04D9012385F81431E3
:10B3A000904C50E104AA9049204619F073FC012802
:10B3B00001D08C4C47E141F65073049A9A4201D077
:10B3C000884C40E12B810123AB7300236B81AB815F
:10B3D0004FF6FF722A82AB74844C34E1AB7B012BB5
:10B3E00001D0804C2FE13A21204619F0EFFC0646AF
:10B3F000002800F0398104AB03AA7D4919F04AFC0A
:10B40000022840F0358109360499039A8B1803EB22
:10B4100011235FFA83F8C2B137460024DFF8D491D4
:10B4200002AA4946384619F035FC012808D1029B8A
:10B4300043445FFA83F802370134039B9C42EFD305
:10B44000039BA34202D0674CFDE0374602AA69493C
:10B45000384619F01FFC0128F5D1029B434413F034
:10B46000FF0F40F00581039B002B00F00181049A3F
:10B47000B2F5005F80F0FC801344013BB3F5005F40
:10B4800080F0F680AB899A4240F0F28000273C467B
:10B4900005F1140ADFF86091DFF8588113E002AA81
:10B4A0004146304619F0F6FB012828D1049B23447D
:10B4B00055FA83F3029A1A7502360123AB741C44C1
:10B4C000039B9C421DD2049B23442A8AB2EB132F78
:10B4D000E5D02846FFF7F8FE002818BF6FF00107F7
:10B4E00004992144090A298289B24FF48072D9F85B
:10B4F000003003EB0121504619F01CF9CFE76FF043
:10B500000107AA89039B1344AB81384B354C002FAC
:10B5100008BF1C4697E0AB7B012B01D0314C92E079
:10B520002A89AB899A4201D02E4C8CE02846FFF73D
:10B53000CBFE002840F09A8072B62F4B1C6826463E
:10B54000002202A9204610F037F9002203A9204664
:10B5500010F046F9002204A904F5FA500F3010F05B
:10B560003FF900220299084610F0D0F8034660BB6C
:10B5700000220499039810F0E1F8034628BB1F4FFE
:10B5800004F5005405F1140A4FF480794FF00008D7
:10B5900005E007F5807706F58076A64215D04A4685
:10B5A0003946504619F0C6F842460299084610F04E
:10B5B000ADF803460028ECD143464A465146304692
:10B5C00010F0DAF803460028E3D062B6074A054CCB
:10B5D000002B08BF14460023AB7302F0A7F832E03B
:10B5E00094AC0000ACB60000BCAC000098E30000D6
:10B5F000B0B60000B8B60000943F002000E00300A1
:10B600000AA9002341F8183D02200FF0F5FD38BBD0
:10B61000049818B14FF0FF32164B5A60164B196858
:10B620000023009341F650720FF01EFE049BABB155
:10B63000104B9D6804A80FF001FE104C2A461049DB
:10B64000204619F001FB2346099A0E4904A819F077
:10B65000FBFA04A90420FDF74DFF87E60025E9E782
:10B660000025EAE7084CEEE7074CECE7064CEAE772
:10B67000054CE8E700500940943F0020C01D002021
:10B68000BCB60000C0B60000ACB60000038833B101
:10B69000B3F5E27F08D000230380032070474FF406
:10B6A000E2730380002070470020704731000000E3
:10B6B0003A2532582534580025325800256C64004C
:10B6C00025642C2573000000F0B583B0D0F800E0AD
:10B6D00011238DF800304D79CF7843681B68DC78F2
:10B6E000002C00F095805B68013CE4B2013403EB70
:10B6F000041402E01033A34221D01E461A78AA4255
:10B70000F8D15A78BA42F5D10C464B78812B37D014
:10B7100040F28480832B24D014D3842B7CD106F177
:10B720000803CEF81C31B37AAEF82031424B1B68C7
:10B730001B685B68DB6800689847002000E03F48B2
:10B7400003B0F0BDB31CCEF81C31B37AAEF8203193
:10B75000394B1B681B685B68DB68006898470020F2
:10B76000EEE7331DCEF81C31B37AAEF82031324B00
:10B770001B681B685B68DB68006898470020DFE790
:10B78000B31DCEF81C31B37AAEF820312A4B1B68BA
:10B790001B685B68DB68006898470020D0E7BEF84C
:10B7A000203133BBB37A012B0FBF9EF824319EF8B2
:10B7B00025219EF8243143EA0223F3801E4B1B68A7
:10B7C0001B685B685B6900689847F36813B30322E2
:10B7D0008DF8032062798DF8012072788DF80220AF
:10B7E000B6F90620019202AA12E903009847002048
:10B7F000A6E70EF59273CEF81C310020A0E70E4BA1
:10B800001B681B685B685B6970469847002097E778
:10B810000A4895E7002093E7002091E7012BBED06E
:10B82000042BF9D1BEF82031002BE8D00EF592732D
:10B83000CEF81C31002083E7000200030200040060
:10B8400042681379002B00F09080F0B583B09668C1
:10B8500003F1FF3E5FFA8EFE0EF1010E0EEB4E0E6F
:10B8600006EB8E0E15E010339C420FD01A78002A9A
:10B87000F9D09D780A799542F5D1044603684A7853
:10B88000012A14D0812A57D03A480EE00C3676456A
:10B890000AD037467478002CF8D0B368013CE4B283
:10B8A000013403EB0414E1E7324803B0F0BDB3F810
:10B8B0002021002A30D1CA88032A01D02D48F4E77C
:10B8C000CA78012A01D02B48EFE793F8251193F8A5
:10B8D0002621120442EA012293F8243113437B60AB
:10B8E000254B1B681B685B685B6900689847636849
:10B8F000DA68002A3BD000240094019411218DF8CD
:10B90000001001218DF8021005218DF803109DE82B
:10B91000030090472046C8E7CA88032A01D015488B
:10B92000C3E7CA78012A01D01248BEE703F5927234
:10B93000C3F81C210020B8E7CA88032A01D00D48AB
:10B94000B3E7CA78012A01D00A48AEE70437C3F842
:10B950001C710322A3F82021074B1B681B685B683E
:10B96000DB680068984700209FE702487047002086
:10B970009BE700BF02000400000200032DE9F0472E
:10B9800082B004460E4600F5B2770023009301937F
:10B9900011238DF80030012A18D0022A40F0B4801B
:10B9A00090F8643103F07F03212B00F08F8058481A
:10B9B00094F8643103F07F03222B40F0A680736873
:10B9C0001A69002A40F3A180002592E090F86431C2
:10B9D00013F0600F03D190F865210B2A12D003F009
:10B9E0007F03212B54D04A4894F8643103F07F033D
:10B9F000222B40F08A8073681A69002A40F3858000
:10BA0000002558E04A6811790029E8D000254FF058
:10BA1000010AE946DFF8FC801AE0D8F8243043F048
:10BA20008043C8F824307368DB6863B18DF803A0E5
:10BA300094F868218DF8012094F866218DF8022091
:10BA400099E803009847013572681379AB421CDD11
:10BA500005EB45018800936803EB000E13F82120E5
:10BA600094F868319A42EED194F866318EF802303B
:10BA700073689B6818448378002BCED1D8F82430A3
:10BA800023F08043C8F82430CDE794F86431A6E76A
:10BA900073681B6894F868211B789A4201D01C488F
:10BAA00033E039463046FFF70FFE9DE701357368F6
:10BAB0001A69AA4229DD5B695A5D94F868319A4295
:10BAC000F4D139463046FFF7BBFEEFE74B681B6801
:10BAD00090F868211B789A4201D00D4815E039464C
:10BAE0003046FFF7F1FD63E7013573681A69AA4232
:10BAF0000BDD5B695A5D94F868319A42F4D139469E
:10BB00003046FFF79DFEEFE7014802B0BDE8F08741
:10BB100002000400004008400020704783686BB3B7
:10BB20005B685BB300B583B06A4601A9C0689847FB
:10BB3000009901B3124B1A6804331B68002A0BDB0F
:10BB400002F0F84242EA014242F000420199C1F398
:10BB50008F110A430A490A60002B0CDB03F0F843FB
:10BB6000009A43EA024343F00043019AC2F38F1262
:10BB70001343044A136003B05DF804FB704700BF31
:10BB8000380000043C00000438B5049D154C616089
:10BB90002060A260E3601AB112680AB118469047AB
:10BBA000104B114A12681268526814681A460F49FD
:10BBB0001868A047034608B1184638BD09480A4B23
:10BBC0001B681B685B685C680346094A07210068BC
:10BBD000A04703460028EFD1002DEDD0014A2A608E
:10BBE000EAE700BFEC1E0020000200037DB9000060
:10BBF00019BB00001A4B5B68834201D0194870479B
:10BC0000174BDB8E8B4228D010B51548C18601F04A
:10BC1000020141F00101A0F8421090F83A300122EF
:10BC200062F3040362F3461363F07F0380F83A3053
:10BC3000202380F83B30037AC3870223A0F84030EA
:10BC4000094B1B681B681B681C6D0A2300F13A0234
:10BC5000417A0068A047002010BD0020704700BF57
:10BC6000FC1E0020020004000002000300207047B8
:10BC700038B5022A27D0032A28D1CB698B614A69BB
:10BC80008B699A42B8BF0A69D31A402BA8BF4023D8
:10BC9000002BCCBF0122002281F8202016D00C46B8
:10BCA0008A69C9680A4D2D682D682D682D6D0A4472
:10BCB000A17AA847A3691844226990FBF2F302FB1A
:10BCC0001300E06102E0012381F83430002038BD28
:10BCD0000002000308B54FF6FF70814214BF08460A
:10BCE0004FF0FF30FDF7E6FD002008BD2DE9F043E1
:10BCF00093B01A9F002961D00E464979022960D17C
:10BD00001C4690460546DFF8D09049F8040B4822BF
:10BD10000021684618F0A8FD236800933B68019352
:10BD20000296CDF80C80284B0D93284B0E93284B90
:10BD30000F93284B1B681B685B695B684A46694622
:10BD400028469847034638B1009A2260019A3A6023
:10BD5000184613B0BDE8F083009B1F48C3604FF442
:10BD60008062026199184162826203F50063009368
:10BD7000019BA3F500630193B3780372812343729F
:10BD8000822383720223C372124B1B681B685B6899
:10BD90005D680346114A05210068A847034600284C
:10BDA000D2D10D480B4B1B681B685B685D6803466E
:10BDB0000A4A04210068A8470346C5E74FF0FF334D
:10BDC000C6E74FF0FF33C3E7F5BB0000D5BC00006A
:10BDD0006DBC000000020003FC1E002071BC0000CE
:10BDE00000234360836070472DE9F04183691B683D
:10BDF0009D68C469036AE31A2B449C4298BF1B1BCD
:10BE00009B02B3FBF4F303F500735C42C3F3090335
:10BE1000C4F3090458BF6342446804F5C064E41ADB
:10BE2000C4F30904A4F5E775642D35D943604FF0D8
:10BE3000100C01260024DFF884E01F4FA0460368A1
:10BE4000650005EB8313456837F825502EF813502D
:10BE5000036806EB8313456807EB85056D882EF8AC
:10BE6000135043680133B3F5806FA8BF4346436066
:10BE700001340236A445E2DC0468104B03EBC41322
:10BE80000B604FEA8C03136003680133022BC8BFB9
:10BE900000230360BDE8F081A4F5007414F1050FE0
:10BEA00006DB062CB4BF4FF0100C4FF00F0CC0E7B0
:10BEB0004FF0110CBDE700BF401F00200008000438
:10BEC00000B583B002AB03E903001F4BD3F8940025
:10BED00028B19DF90330012B05D0052B1BD0002084
:10BEE00003B05DF804FB9DF80130012BF7D1002170
:10BEF0000EF08BFF01460028F1D0002303709DF85F
:10BF00000230003318BF012303710F4BD3F89400A4
:10BF10000EF09FFFE3E7009B23F07F4323F0FF0336
:10BF20000A4A9342DBD100210EF06FFF0146002840
:10BF3000D5D001230370019B4360034BD3F89400D9
:10BF40000EF087FFCBE700BF402F002000830100E9
:10BF500010B590F8ED30002B14BF01220022194BD0
:10BF600083F8642004D118480FF078FD002010BD3C
:10BF700003F18804214602200FF032FD134954F8E2
:10BF800088090FF0ABFDD4F888301A68002353609D
:10BF9000D4F888201268936002200EF0DBFF0C4B6F
:10BFA000A3FB0030800A8002C4F88C000138D4F86A
:10BFB00088301B689861D4F888301B6801225A6069
:10BFC000D4E700BF402F0020C82F00205CC2000033
:10BFD000D34D621008B5054B5968C1F30A01044BF3
:10BFE000986EFFF79BFD002008BD00BF0040084091
:10BFF000402F0020002A26DDF0B5134BD3F888E04F
:10C000000446043900EB82001D46104E4FF0000C30
:10C0100008E0C5F878C0DEF800309B68C5F89030BD
:10C0200084420FD0AB6F54F8047B26F8237006EBE4
:10C03000830751F8042F7A800133B3F5806FE8DA73
:10C04000AB67EDE7F0BD7047402F0020401F002098
:10C05000131E2CDDF0B5164AD2F8882004380D46A0
:10C0600001EB8301124E134F4FF0000C07E0C6F8AE
:10C0700078C013689B68C6F890308D4216D0B36FB5
:10C0800050F8044F27F82340F5EC017A07EB830EB4
:10C09000B0EE677ABEEEE87A17EE104AAEF80240CC
:10C0A0000133B3F5806FE2DAB367E6E7F0BD7047BE
:10C0B000402F0020401F0020131E31DDF0B5194A2B
:10C0C000D2F88820054600EB8300164E164F4FF03D
:10C0D000000C07E0C6F878C013689B68C6F890307B
:10C0E00085421CD0B36FF5EC017AB0EE677ABEEEF4
:10C0F000E87A17EE104A27F82340F1EC017A07EBB3
:10C10000830EB0EE677ABEEEE87A17EE104AAEF80C
:10C1100002400133B3F5806FDCDAB367E0E7F0BDCE
:10C12000704700BF402F0020401F002010B582B094
:10C1300000212A480EF067FE294BC3F89400294AD3
:10C14000126811685960284ADA60284A1A614FF467
:10C1500000625A6105221A76254ADA62254ADA63B4
:10C16000254A02F12400186502F13800586502F5ED
:10C17000D672DA659A6500221A660A68546803F175
:10C180000C0203F150011846A04708B102B010BDDF
:10C190001A4B194953F8100C1A1D009201F24D2246
:10C1A00001F22A21FFF7A2FD0028EFD1144B12491A
:10C1B00053F8700CA3F10802009201F51A7201F510
:10C1C0001C71FFF7E1FC0028E0D1054B5A681268AA
:10C1D0009268012118689047D8E700BF84000020CA
:10C1E000402F00200002000300400840000000042F
:10C1F000D5BF000051BF00005CC20000502F0020DE
:10C20000B02F002000B585B000220E4BD3F894105B
:10C2100001A80EF026FE019B202B02D005B05DF890
:10C2200004FB029B1A78002AF8D11B7923B900225B
:10C23000044B83F86C20F1E70122024B83F86C2059
:10C24000ECE700BF402F002008B5034B5A68126886
:10C25000D2681868904708BD402F002003000000F6
:10C2600000000000000000000100000000000100CC
:10C2700000000000000000000000000000000000BE
:10C2800012010002EF020140C016DC0500010102AC
:10C2900003010000040309045203670069007400ED
:10C2A0006800750062002E0063006F006D002F00B3
:10C2B000650069006E006500720067006500680037
:10C2C00074006E006F006300680072006500690012
:10C2D0006E002F00720061002D0068006100720086
:10C2E000640077006100720065001C035200610069
:10C2F000200053006F006E00640065006E00670050
:10C300006F007400740004032A00160353006500D4
:10C310007200690061006C00200049004100440087
:10C320001603530065007200690061006C00200074
:10C33000430049004600160353006500720069007F
:10C3400061006C0020004400490046002E035200AA
:10C350006100200052006100640069006F007300FA
:10C360006F006E00640065002000520065006300ED
:10C37000650069007600650072002A0352006100C2
:10C38000200046004D00200052006500630065005B
:10C3900069007600650072002000410075006400AD
:10C3A00069006F001C0341007500640069006F00A4
:10C3B0002000460065006100740075007200650091
:10C3C0002C0341007500640069006F0020004F00DD
:10C3D0007500740070007500740020005400650042
:10C3E00072006D0069006E0061006C001A0341006C
:10C3F0007500640069006F00200053007400720033
:10C40000650061006D0000000902B80004010080B1
:10C410007D080B0002010100000904000000010179
:10C4200000070924010001280001010C2402010178
:10C43000060002030000080A2406020101030000AE
:10C440000909240303010100020A09040100000193
:10C4500002000B09040101010102000B0724010382
:10C460000101000B24020102021001803E000905B7
:10C470008305480001000007250101000000080BAA
:10C480000202020201000904020001020201050584
:10C4900024001001042402020524060203052401DD
:10C4A00001000705810310000A09040300020A00C5
:10C4B0000006070502024000000705820240000056
:10C4C00000000000E1BD0000E9BD00000CC5000057
:10C4D00001000000A4000020C1BE00000100000017
:10C4E000E4C4000083000000000000000000000021
:10C4F000000000000000000001038300480001006C
:10C500000100000008C50000803E0000000000029D
:10C51000B000002030B599B00446502204A900684C
:10C520000FF056FC002806DD03AA234904A818F0E2
:10C53000B1FB012801D019B030BD039B0A2B06D0F6
:10C540001B2B1ED0002BF6D101232373F3E702AA85
:10C550001A4904A818F09EFB0128ECD1029B032B7A
:10C5600008D0042BE7D104F18502154904A818F07E
:10C5700091FBE0E704F10D02124904A818F08AFBD0
:10C58000D9E704F1350501AB2A460F4904A818F094
:10C5900081FB5022019904AB1944284618F0DEFEB5
:10C5A00094F83530002BC6D0284618F069FE204498
:10C5B000002380F83430BEE748C8000044C80000BB
:10C5C00058C800004CC8000068C8000070B5054697
:10C5D0008160114B59600446194654F80C0B0FF05A
:10C5E00093FC0A200EF0C2FBA1220021204618F085
:10C5F0003BF90122094928680FF03CFC0A24264631
:10C6000030460EF0B3FB2846FFF784FF287B08B9BD
:10C61000013CF5D170BD00BFD000002074C80000FF
:10C6200070B50446012913D0022920D009B1002099
:10C6300070BD4279154D0023AB5402790126AE54EA
:10C640008279AB5405200EF091FBA379EE54EEE70E
:10C6500043790E4D0126EE5402790023AB548279C2
:10C66000AB5405200EF082FBA379EE54DFE743794B
:10C67000064D0126EE540379EE5483790022EA54E4
:10C6800005200EF073FBA379EE54D0E700C00840FC
:10C6900030B4054C029D2C60206021716271A37141
:10C6A000002030BC704700BF2830002010B5044681
:10C6B0000021FFF7B5FF4FF4E1312046FFF786FF79
:10C6C00008B1002010BD4FF461312046FFF77EFF16
:10C6D00008B1002010BD4FF4E1212046FFF776FF9E
:10C6E00000280CBF6FF00100002010BD70B504469B
:10C6F0000021FFF795FFA122002104F10C0018F0A2
:10C70000B3F8A1682046FFF761FF70B3072218490C
:10C7100020680FF0AFFB0A252E4630460EF026FBB0
:10C720002046FFF7F7FE013DF7D1072211492068A7
:10C730000FF0A0FB0A252E4630460EF017FB2046D0
:10C74000FFF7E8FE013DF7D10F220B4920680FF0FB
:10C7500091FB0A252E4630460EF008FB2046FFF7D7
:10C76000D9FE013DF7D1002070BD6FF0010070BD12
:10C7700078C8000080C8000088C8000090F83530F4
:10C780000BB90020704710B594B00446144B1968DB
:10C7900050228031684618F00FFE9DF800302BB112
:10C7A00004F13501684618F08FFB10B9002014B071
:10C7B00010BD0E220B4920680FF05CFB684618F094
:10C7C0005FFD0246694620680FF054FB02220649CD
:10C7D00020680FF04FFB64200EF0C8FAE6E700BFB8
:10C7E0001000002098C80000A8C8000008B319B3C2
:10C7F00010B586B00C4600230B6005AB019304AB6B
:10C80000009303AB02AA0E490D3018F043FA042836
:10C8100002D0002006B010BD039B1B04029A43EA1D
:10C820000263059A1343049A43EA0223236000201B
:10C83000F0E76FF0020070476FF00200704700BF32
:10C84000ACC80000252A642025640000252A642045
:10C85000252A642025730000252A6420252A6420C7
:10C86000252A732025730000252A64202573256E50
:10C87000000000000D0000004154204920340D004C
:10C880004154204920330D0041542B43464745581D
:10C8900020313137203F0D0041542B434647455846
:10C8A0002031313720220000220D000025642E2582
:10C8B000642E25642E256400044B0B604FF4002287
:10C8C0004FF08043C3F82422704700BFD8300020C7
:10C8D00070B310B403464FF000741648C0F880409F
:10C8E0001A600B460029B8BFCB1C9A10124B1A6075
:10C8F00000225A60032199601A611049C3F8801020
:10C900000121C3F88C104FF4A070C3F89000C3F855
:10C910000C2FC3F8102FC3F8001F064B4FF0007206
:10C920001A60602283F8192340225A605DF8044B94
:10C93000704700BF00E100E0000009400700080068
:10C94000044B4022C3F884204FF00072C3F88020CB
:10C95000704700BF00E100E020B100F5616393ED96
:10C96000000A70479FED010A704700BF0000C07FBA
:10C970002DE9F047384BD3F8845015F0010F64D0FF
:10C98000364BD3F8046C08201946DFF8CC8003F549
:10C99000616C06FA00FE002704E00133C1F80C3C8C
:10C9A00001383AD0D1F80C3CFF2BF6DCD8F88820BF
:10C9B000120248BFFF321212D1F8144E04F5417A28
:10C9C00051F82A9041F82A2001347F2CC8BF3C46F8
:10C9D000C1F8144EA2EB0909D1F8184E4C44C1F825
:10C9E000184EA146002CB8BF04F17F094FEAE914A4
:10C9F00007EE904AB8EEE77A8CED007A0EEB03046E
:10CA000001EB840407EE902AF8EEE77A77EEC77A16
:10CA1000FDEEE77AC4ED017ABFE7FF2B15DD0F4A83
:10CA20000023C2F80C3CC2F8086C0136A3F1AA330B
:10CA300083FB0613A3EBE67303EB4303F61AC2F87A
:10CA4000046C4022064BC3F8042105F00705024B95
:10CA5000C3F88450BDE8F08700000940D8300020BA
:10CA600000E100E008B5064B1B6843B10448D0F86C
:10CA7000082C00EB82204FF480710430984708BDE9
:10CA8000D8300020000000002DE9F04F2DED088B7C
:10CA900087B082468B46D0E90267D0E90023104672
:10CAA000194616F037FA04460D4632463B463046E4
:10CAB000394616F02FFA02460B462046294616F054
:10CAC00077F841EC100B10F0EDFD55EC104BC5A3C1
:10CAD000D3E9002310EE100A294616F01BFA064689
:10CAE0000F46BBA3D3E90023DAE9040116F012FADA
:10CAF00047EC116B41EC100B10F0CCFAB0EE408A11
:10CB0000F0EE608A9AED001B9AED020B10F0C2FA6B
:10CB10008BED020BB0EE480AF0EE680A0FF030FF22
:10CB200059EC108BB0EE480AF0EE680A0FF070FE78
:10CB300057EC106BADA3D3E9002310EE100A394671
:10CB400016F0E8F932463B4616F0E4F932463B4629
:10CB500016F0E0F902460B462046294616F026F864
:10CB600006460F46A3A3D3E900234046494616F0E4
:10CB7000D1F942464B4616F0CDF942464B4616F0E7
:10CB8000C9F9DAE9042316F013F847EC116B41EC0C
:10CB9000100B10F07FFA8BED000B0FF0F1FE57EC4D
:10CBA000106B96A3D3E9002310EE100A394616F055
:10CBB000B1F932463B4616F0ADF902460B4600206D
:10CBC000874915F0F3FF41EC100B10F06BFD57ECAB
:10CBD000106B9BED008BB0EE480AF0EE680A0FF088
:10CBE00017FE53EC102B8DED020B2046294616F054
:10CBF000BBFA04460D4632463B4675A1D1E9000119
:10CC000016F0B2FA02460B462046294615F0CEFF32
:10CC1000CBE9040151EC180B16F054FC0AEE900A13
:10CC200000EE100A10F036F8B0EE40AA9BED029B21
:10CC300051EC190B16F046FC0BEE100A00EE100A30
:10CC400010F028F8F0EE40BAB0EE4B0A10F076F98A
:10CC5000B0EE40BAB0EE6A0A10F070F9DAED067A7A
:10CC60006AEE277A67EEAB7A9AED077A2AEE07AA80
:10CC70002AEE0BAA77EE8A7A9AED087A20EE070A56
:10CC800077EE807ACBED067ADAF8180016F0EEF837
:10CC9000CDE90001B0EE490AF0EE690A0FF070FE2E
:10CCA00053EC102B10EE106A03F10047DAF81C0069
:10CCB00016F0DCF880468946B0EE490AF0EE690AC3
:10CCC0000FF0A6FD55EC104B32463B46DDE9000166
:10CCD00016F020F9CDE9040122462B46404649468C
:10CCE00016F018F902460B46DDE9040115F060FF65
:10CCF00016F0E8FB09EE100AB0EE480AF0EE680AFA
:10CD00000FF03EFE53EC102B204605F100418DED57
:10CD1000040B16F0FFF8DDE9002316F0FBF80446DB
:10CD20000D46DDE904233046394616F0F3F8424655
:10CD30004B4616F0EFF802460B462046294615F002
:10CD400037FF04460D46DAF8200016F08FF8DDE9CB
:10CD5000022316F0DFF802460B462046294615F05E
:10CD600027FF16F0AFFB08EE100A29EE090A68EE5D
:10CD7000087A30EE270AF1EEC08AB5EE400AF1EEED
:10CD800010FA13D4CBED078AF0EE480AB0EE490A48
:10CD900010F048FDB5EEC00AF1EE10FA09D98BED9E
:10CDA000080A07B0BDEC088BBDE8F08F10F0A2FEBA
:10CDB000E8E710EE100A16F059F807A3D3E90023AC
:10CDC00015F0F6FE16F07EFBCBF82000E9E700BF79
:10CDD00000000040A6545841182D4454FB2119402E
:10CDE0000000F03F51DA1B14C43F584120F79387ED
:10CDF00035D9E440F4E9AEF829EBE440B3BAFEF2E9
:10CE0000906B7B3F000000002DE9F84F04460D4673
:10CE100090ED000B0FF0B4FD57EC106B3DA3D3E980
:10CE2000002310EE100A394616F074F832463B46DD
:10CE300016F070F802460B460020354915F0B6FE94
:10CE400041EC100B10F02EFC53EC102B2CA1D1E96F
:10CE5000000116F089F906460F4694ED000B0FF01D
:10CE6000D7FC5BEC10AB94ED020B0FF0D1FC59EC4E
:10CE7000108BD4E904233046394615F099FE52460A
:10CE80005B4616F047F842464B4616F043F8C5E9B4
:10CE9000000194ED000B0FF0BBFC5BEC10AB94EDCC
:10CEA000020B0FF06DFD59EC108BD4E904233046D2
:10CEB000394615F07DFE52465B4616F02BF8424689
:10CEC0004B4616F027F8C5E9020194ED000B0FF070
:10CED00057FD59EC108B0CA3D3E90023304639469B
:10CEE00016F018F8D4E9042315F062FE42464B46CA
:10CEF00016F010F8C5E90401BDE8F88FAFF3008023
:10CF000000000040A65458418B021ADE28C9EF3FAA
:10CF10000000F03FB3BAFEF2906B7B3F00000000D0
:10CF200038B590ED000B0FF073FC55EC104B13A3CC
:10CF3000D3E9002310EE100A294615F0EBFF224634
:10CF40002B4615F0E7FF02460B4600200A4915F074
:10CF50002DFE41EC100B10F0A5FB53EC102B04A19F
:10CF6000D1E9000116F000F941EC100B38BD00BF0B
:10CF700051DA1B14C43F58410000F03FB3BAFEF22F
:10CF8000906B7B3F000000002DE9F04F89B0054613
:10CF900057EC106B0C469246D4F8B000D4F8B4109D
:10CFA00016F090FA00EE100A0FF016FF4342C0F39D
:10CFB0000900C3F3090358BF5842734B03FB00F049
:10CFC00015F032FF8046894632463B4615F0F0FDAB
:10CFD00006460F46206E616E42464B4615F0E8FD50
:10CFE00002460B463046394615F0E0FDCDE900011A
:10CFF000504615F019FF42464B4615F0D9FD024642
:10D000000B463046394615F0D1FDCDE90601A06D3D
:10D01000E16D02460B4615F07DFF06460F460246BF
:10D020000B4615F077FF32463B4615F073FF02467C
:10D030000B464FA1D1E9000116F096F841EC100B18
:10D0400010F030FB206B616B53EC102B15F0B0FD32
:10D05000DDE9002315F05EFFA26BE36B15F0A8FD80
:10D0600080468946A66CE76C49EC108B4FF0070AA6
:10D070000FF086FC53EC102B3046394615F04AFF72
:10D0800042464B4615F094FD41EC100BBAF1010AF3
:10D09000EED10FF075FC5BEC10ABD4F85880D4F8EF
:10D0A0005C9035A3D3E900233046394615F032FFB2
:10D0B00002460B464046494615F02CFF52465B4659
:10D0C00015F028FFCDE90401DDE90623DDE906AB13
:10D0D000DDE906892069616915F01CFFA268E36833
:10D0E00015F066FD06460F46A069E16952465B46AB
:10D0F00015F010FF42464B4615F00CFF02460B465A
:10D100003046394615F054FDD4F8D020D4F8D43048
:10D1100015F04CFDCDE90201DDE90201DDE904670E
:10D1200017A3D3E9002315F0F5FE32463B4615F070
:10D130003FFDC5E91401DDE90667A069E169024622
:10D140000B4615F035FD32463B4615F0E3FE2269ED
:10D15000636915F02DFD0AA3D3E9002315F0DAFE6B
:10D16000C5E9160109B0BDE8F08F00BFAFF300803C
:10D170000054DA5B66A8F642CE7B71A96F0CC1BF82
:10D180000000004A78DEB141803A0900000000004A
:10D190002DE9F04F2DED068B87B0B0EE408AF0EE12
:10D1A000608AF0EE419AB0EE61AA044657EC126B29
:10D1B000B0EE410A0FF06EFDDFEDE17A20EE270AB6
:10D1C00010F0D0FA30EE699AB0EE4A0A0FF062FD24
:10D1D00029EE000A30EE088A18EE100A15F046FE15
:10D1E00080468946BEA3D3E9002316F023F9002820
:10D1F00040F0C481BCA3D3E900234046494616F061
:10D20000FBF80028DFEDCF7A18BFB0EE678AB0EEEA
:10D210004A0A0FF093FEB0EE40AAB0EE480A0FF0B3
:10D2200039FD29EE0A9A89EE000A70EE288A18EE76
:10D23000900A15F01BFEAEA3D3E9002315F0B6FC4F
:10D2400016F040F900EE100A0FF024FDB0EE409AFF
:10D2500018EE100A15F00AFEA7A3D3E9002315F073
:10D2600083FF80468946DFEDB87A69EE277A17EEAC
:10D27000900A15F0FBFD02460B464046494615F064
:10D2800097FC16F01FF908EE100ADFEDB07A68EE91
:10D29000A77A17EE900A15F0E9FD97A3D3E90023CA
:10D2A00015F062FF32463B4615F082FC94A3D3E9A9
:10D2B000002315F07DFC16F005F9DFEDA50A00EE60
:10D2C000100A10F033FB10EE100A15F0CFFDCDE977
:10D2D000020119EE900A15F0C9FD87A3D3E90023D6
:10D2E00015F042FF02460B4687A1D1E9000115F077
:10D2F0005DFC9FED871B41EC100B10F041F8002204
:10D30000944B51EC100B15F005FE0022924B15F0DA
:10D310004FFCCDE9040118EE100A15F0A7FD0646F2
:10D320000F4668EE088A18EE900A15F09FFD8246B7
:10D330008B4668EE287A17EE900A15F097FDCDE936
:10D34000000104F5F7531833D3E90023304639467A
:10D3500015F0E0FD04F5F7531033D3E9002315F081
:10D3600027FC8046894604F5F853D3E9002350464C
:10D37000594615F0CFFD02460B464046494615F08A
:10D3800017FC8046894604F5F8530833D3E9002397
:10D39000DDE9000115F0BEFD02460B464046494658
:10D3A00015F006FC8046894604F5F8531833D3E996
:10D3B00000233046394615F0ADFD04F5F85310331F
:10D3C000D3E9002315F0F4FB06460F4604F5F953A4
:10D3D000D3E900235046594615F09CFD02460B4602
:10D3E0003046394615F0E4FB06460F4604F5F9547D
:10D3F000D4E90223DDE9000115F08CFD02460B465D
:10D400003046394615F0D4FB04460D460022002371
:10D410004046494615F0F0FF002840F0B2803EA398
:10D42000D3E900232046294615F0E6FF10B13AA5BE
:10D43000D5E900453AA3D3E90023DDE9020115F05F
:10D44000B5FB39A3D3E9002315F064FD22462B4632
:10D4500015F08AFE04460D46204625F0004134A30F
:10D46000D3E9002315F0D2FF002800F08F80224678
:10D470002B462046294615F04DFD06460F4602462E
:10D480000B462046294615F045FD22462B4615F051
:10D4900041FD0022314B15F067FE04460D46002287
:10D4A0002F4B3046394615F035FD02460B4600201D
:10D4B000294915F07BFB02460B462046294615F00C
:10D4C00077FB42464B4615F025FD1BA3D3E900230D
:10D4D00015F06EFBDDE9042315F01CFD42E000BFF2
:10D4E0003FD038C6A6F1F43F3FD038C6A6F1F4BF0E
:10D4F000B8E8834ACD501440182D4454FB2109400C
:10D50000000000000018F540F6285C8FC2F5E03FEF
:10D510000000000000000840000000000094F140FE
:10D5200000000000009CE840182D4454FB211940E5
:10D53000182D4454FB21F93F3A8C30E28E79353E68
:10D54000ABAA723F368DA7BF6F12833D00C028473C
:10D5500000C0A847000030400000F03F0000384005
:10D560000000E03F0DA3D3E9002315F0D3FC41EC0C
:10D57000100B07B0BDEC068BBDE8F08F9FED068A5F
:10D5800045E64FF000084FF0000948E70020002171
:10D590009BE700BFAFF30080368DA73F0000004A35
:10D5A00078DEB14100000000F0B52DED088B8BB0A6
:10D5B00005460C4616461F466946FFF765FAD5E94B
:10D5C0000023D4E9000115F0F1FA15F07BFF08EE15
:10D5D000100AD5E90223D4E9020115F0E7FA15F0A3
:10D5E00071FF0BEE100AD5E90423D4E9040115F00C
:10D5F000DDFA15F067FF0AEE100ADDE9000115F00B
:10D6000061FF08EE900A00EE100A0FF097FCF0EEB2
:10D6100040AAB0EE680A0FF03DFBB0EE409ADDE99B
:10D62000020115F04FFF08EE900A00EE100A0FF00D
:10D6300085FCF0EE40BAB0EE680A0FF02BFB6BEE03
:10D64000C89A6BEE007A79EEA79A6AEEC08A68EE05
:10D65000888A6AEEAB7A67EE8B7A78EEE78A6AEEB2
:10D66000097A78EEA78A29EE000A20EE088A29EEC8
:10D670002B9A29EE0B9A38EE098A2AEE2AAA38EE5E
:10D680000A8A28EEA80A69EEA97A30EE270AB1EED6
:10D69000C09AB5EE400AF1EE10FA16D488EE090AE7
:10D6A0000FF0CEF986ED000AF0EE680AB0EE690AD6
:10D6B00010F0B8F8B5EEC00AF1EE10FA08D487ED14
:10D6C000000A0BB0BDEC088BF0BD10F013FAE5E7D3
:10D6D00010EE100A15F0CAFB05A3D3E9002315F0DC
:10D6E00067FA15F0EFFE3860EBE700BFAFF300809C
:10D6F000182D4454FB211940B8B110B50446D0E9A7
:10D7000004231046194615F09FFE68B9FBF736F85A
:10D7100010EE100A15F0AAFB02460B46D4E90401EC
:10D7200015F046FAC4E9040110BD70472DE9F04F29
:10D730002A482B4B186002462A4900F5F0502A4F20
:10D74000DFF8B0C0294E2A4D4FF461641FE086FB1C
:10D7500003A909EB030A4FEAE379C9EBAA09C9EB6C
:10D76000C909A3EB090398F8F39004FB09F905FB39
:10D77000039398F8F490C9EB091903EB890398F81F
:10D78000F580434441F8043FF032824224D0904671
:10D7900092F8F23092F8F1B007EB0B0919F8019CFE
:10D7A0004B4492F8F0A00AEB9A09994409F1060358
:10D7B000BBF1020FCBD81AF0030FC8D1ACFB0AEBB8
:10D7C0004FEA5B1B4FF0640E0EFB1BAA1AF0FF0F13
:10D7D00018BF09F10503BAE7BDE8F08F0090030018
:10D7E000943F0020F03E002068E30000932449921B
:10D7F000805101001F85EB512DE9F04F2DED0E8B6F
:10D8000099B004460D46B0EE419A026E436E51EC5B
:10D81000100B15F0CBF906460F46CDE900670FF265
:10D820008C43D3E9002315F005FE48B10FF2844381
:10D83000D3E900233046394615F0B8F9CDE90001A7
:10D840000FF27843D3E90023DDE90067304639461B
:10D8500015F0D2FD48B10FF25C43D3E90023304606
:10D86000394615F0A5F9CDE90001A06DE16D02463C
:10D870000B4615F04FFB06460F46CDE906670246FC
:10D880000B4615F047FB32463B4615F043FB02467C
:10D890000B460FF23041D1E9000115F065FC41EC77
:10D8A000100B0FF0FFFE206B616B53EC102B15F08B
:10D8B0007FF9CDE91601A66BE76BDDE91623DDE9FB
:10D8C000000115F027FB02460B463046394615F09D
:10D8D0006FF9CDE91401DDE91423CDE91223A66C1B
:10D8E000E76C4FF007089DED120B0FF049F8DDE9EA
:10D8F00014AB53EC102B3046394615F00BFB524657
:10D900005B4615F055F9CDE91201B8F10108EAD1ED
:10D9100032463B463046394615F0FCFA02460B4685
:10D920000020E14915F042F941EC100B0FF0BAFE6E
:10D9300059EC108B9DED120B0FF022F8B0EE408ADF
:10D94000F0EE608A9DED120B0EF062FFA26CE36CAC
:10D9500051EC100B15F02AF906460F4653EC182B24
:10D960004046494615F0D6FA47EC116B41EC100BD6
:10D970000FF090FB53EC102BD4F89000D4F89410D7
:10D980008DED020B15F014F98046894602460B46D0
:10D9900015F00EF941EC180B41EC100B0EF0F0FFF6
:10D9A00057EC106BB0EE480AF0EE680A0EF030FF4C
:10D9B0005BEC10AB206D616DCDE9046732463B46F0
:10D9C00015F0A8FA06460F46206C616C52465B467D
:10D9D00015F0A0FA02460B463046394615F0E8F835
:10D9E00042464B4615F0E4F8CDE910019DED120BCF
:10D9F0000EF00EFF59EC108BA06AE16ADDE90423FA
:10DA000015F088FA06460F46D4F88800D4F88C1032
:10DA100052465B4615F07EFA02460B4630463946C2
:10DA200015F0C6F806460F46A06CE16C42464B4620
:10DA300015F070FA02460B4600209B4915F0B6F827
:10DA4000DDE9062315F066FA02460B4630463946F4
:10DA500015F0AEF8CDE90E01A06FE16FDDE904230A
:10DA600015F058FA06460F46A06EE16E52465B4628
:10DA700015F050FA02460B463046394615F098F834
:10DA8000D4F88020D4F8843015F092F806460F467A
:10DA9000D4F8A000D4F8A410DDE9008942464B4632
:10DAA00015F038FA02460B463046394615F080F834
:10DAB000CDE90C019DED100B0EF0AAFEDDE90E2361
:10DAC00051EC100B15F026FACDE904019DED100B79
:10DAD0000EF056FFDDE90E2351EC100B15F01AFA8B
:10DAE000CDE90001D4F89800D4F89C106AA3D3E9DA
:10DAF000002315F05BF842464B4615F00BFA226FF7
:10DB0000636F15F055F880468946266E676E19EEEC
:10DB1000100A15F0ABF962A3D3E9002315F024FB3A
:10DB200002460B463046394615F042F85AA3D3E96F
:10DB3000002315F0EFF902460B464046494615F022
:10DB400035F841EC190B41EC100B0EF061FE59EC6D
:10DB5000108B9DED0C0B0EF05BFEB0EE408AF0EEEC
:10DB6000608AB0EE490AF0EE690A0EF009FF5BEC3C
:10DB700010AB42464B46DDE9040115F0CBF90646F1
:10DB80000F4653EC182BDDE9000115F0C3F952469E
:10DB90005B4615F0BFF902460B463046394615F094
:10DBA00005F8C5E900019DED0C0B0EF031FE53ECBC
:10DBB000102BDDE9000115F0ADF942464B4615F09A
:10DBC000A9F906460F4652465B46DDE9040115F009
:10DBD000A1F902460B463046394614F0E9FFC5E983
:10DBE00002019DED0C0B0EF0CBFE53EC102BDDE98A
:10DBF000000115F08FF9C5E904019DED16BBD4F8BD
:10DC000048A0D4F84CB0DDE9120115F05BFC00EE41
:10DC1000100A0FF03FF8B0EE40EADDE9120115F00E
:10DC200051FC00EE100A0FF089F9F0EE40CADDE970
:10DC3000020115F047FC08EE100A00EE100A0FF082
:10DC400029F810EE100A15F011F952465B4615F04E
:10DC500061F9CDE90801B0EE480A0FF06FF9B0EEB6
:10DC600040CADDE9100102460B4614F0A1FF15F091
:10DC700029FC00EE100A0FF00DF8F0EE40AADDE9E5
:10DC8000100102460B4614F093FF15F01BFC00EE4A
:10DC9000100A1BE0AFF300805B8DCBD7A71D133FAD
:10DCA0000000004A78DEB1410000F03F00000000B3
:10DCB00000751241000000000075224100000000C4
:10DCC000007512C10054DA5B66A8F6420FF036F90F
:10DCD000B0EE408ADDE9120115F0F4FB00EE100A07
:10DCE0000FF02CF9B0EE40AA9DED16DBDDE9100136
:10DCF00015F0E8FB00EE100A0EF0CCFFF0EE408AC3
:10DD0000DDE9100102460B4614F052FF15F0DAFB74
:10DD100000EE100A0EF0BEFF10EE108ADDE91001D1
:10DD200002460B4614F044FF15F0CCFB00EE100A3F
:10DD30000FF004F9F0EE40EAA66AE76A404615F0F3
